:020000042001D9
:100000009711FF5F9381015B970200009382820149
:100010007390523093021000638402007350107C7E
:100020009702000093828215739052301701FFDF10
:10003000130141FD63140100138101D1732540F1C7
:10004000814213030040137101FF6385A2001A91DE
:100050008502D5BF970000009380A0046383000051
:100060008290732540F1814501462D229700FFDFE4
:10007000938040F96383000082909702000093828E
:10008000C2007390523003230000F5BF000000004F
:100090008280232003001103E34D73FE82800684D7
:1000A0009702FFDF938202F66385020C9702FFDF5F
:1000B000938242F5F32740F1A14673B00630639670
:1000C000570A1703FFE71303E3F39723FFE793832D
:1000D00063F3630E7300753F1703FFDF130383F2AF
:1000E0009703FFDF938303F2630373005D37170306
:1000F000FF5F130323F19743FF5F9383A3F0630331
:100100007300413F1703FFDF1303C3EF9703FFDFC4
:10011000938343EF63037300AD3F1703FFDF1303C4
:1001200063EE9703FFDF9383E3ED6303730095377B
:100130001703FFDF130303ED9703FFDF938383ECC4
:1001400063037300B9371703FFDF1303A3EB9703B0
:10015000FFDF938323EB63037300253F3707000220
:1001600085471CC30F00300129A0370700021C433C
:10017000EDDFA28082800000F3222034732310344C
:10018000F3233034D5BF411122C6000801003244A8
:100190004101828006849711FF5F9381A141930200
:1001A00000006317550A97920000938222E117031B
:1001B000FF5F130323E59713FF5F938323C5638CCE
:1001C0006200635A730003A5020091022320A3007A
:1001D0001103E34A73FE971200009382223417033F
:1001E000FFE7130323E29703FFE79383A3E1638C05
:1001F0006200635A730003A5020091022320A3004A
:100200001103E34A73FE0F1000001713FF5F13037F
:10021000E3BF93830191635773002320030011030D
:10022000E34D73FE1712FF5F130242BE11C2029626
:10023000179500001305859CEF801018EF80501F64
:10024000179500001305A5CFEF801017EF80904D94
:100250001D3FFD5673B0463073B04634F32710305F
:10026000372704007D8F09C773B0363073B026304E
:10027000370704007D8F19C373B0061837070100D4
:1002800013078702F98F89CBF32700300967D98FCD
:100290007390073073503000054597150000938523
:1002A000652617160000130626263120EF8030122F
:1002B000A28082808280411106C2F32240F11303A2
:1002C00000006385620073005010F5BFEF10604AB4
:0602D00092404101828012
:0C02D800E4020120100301203A03012081
:1002E400011106CE22CC0010EF6030012326A4FEBB
:1002F4008327C4FE99C7B7170080138507DAEF6018
:1003040050080100F240624405618280011106CE6A
:1003140022CC0010EF60607E2326A4FE8325C4FE59
:10032400B7170080138507DAEF8080320100F240AE
:10033400624405618280411106C622C40008F16747
:1003440093850720B7170080138587D4EF80A04ECC
:0A0354000100B24022444101828002
:10036000202020202020202020202020202020208D
:1003700020205349464956452C20494E432E000023
:100380002020202020202020202020353535353504
:10039000353535353535353535353535353535350D
:1003A0003535353500000000202020202020202079
:1003B00020203535353520202020202020202020E9
:1003C0002020202020202020203535353500000039
:1003D00020202020202020202035353535202020C9
:1003E000202020202020202020202020202020200D
:1003F00020203535353500002020202020202020E9
:100400003535353520202020202020202020202098
:1004100020202020202020202020203535353500A8
:100420002020202020202035353535202020202078
:100430002020353535353535353535353535353596
:100440003535353535353535000000002020202084
:100450002020353535352020202020202035353509
:10046000353535353535353535353535353535353C
:100470003535353535000000202020202035353534
:100480003520202020202020202020202020202057
:100490002020202020202020202020202020353532
:1004A000353500002020202035353535202020200E
:1004B000202020202020202020202020202020203C
:1004C00020202020202020202020203535353500F8
:1004D00020202035353535202020202020202020C8
:1004E000202020202020202020202020202020200C
:1004F0002020202020202020353535350000000028
:1005000020203535353535353535353535353535C5
:1005100035353535353535353535353535352020B5
:1005200020202020202020203535353535000000C2
:100530002020203535353535202020202020202052
:1005400020202035353535353535353520202020EE
:1005500020202020202020353535353500000000B2
:100560002020202020353535353520202020202022
:100570002020202020353535353520202020202012
:100580002020202020353535353500002020202042
:1005900020202035353535352020202020202020F2
:1005A0002020203520202020202020202020203521
:1005B0003535353500000000202020202020202067
:1005C00020353535353520202020202020202020C2
:1005D00020202020202020202035353535350000F2
:1005E00020202020202020202020203535353535A2
:1005F00020202020202020202020202020202035E6
:100600003535353500000000202020202020202016
:100610002020202020353535353520202020202071
:1006200020202020203535353535000020202020A1
:100630002020202020202020202020353535353551
:1006400020202020202020353535353500000000C1
:10065000202020202020202020202020202020209A
:1006600020353535353520202035353535350000F8
:10067000202020202020202020202020202020207A
:10068000202020353535353535353535000000002D
:10069000202020202020202020202020202020205A
:1006A0002020202020353535353500002020202021
:1006B000202020202020202020202020202020203A
:1006C0002020203500000000202020202020202095
:1006D0002020202020202057656C636F6D652074DA
:1006E0006F205369466976652100000072656400D9
:1006F0004C443000677265656E000000626C756581
:10070000000000004174206C65617374206F6E6599
:10071000206F66204C454473206973206E756C6CA5
:100720002E000000435055206E756C6C2E000000AA
:1007300043505520696E7465727275707420636FD2
:100740006E74726F6C6C6572206973206E756C6C60
:100750002E0000004C45413235366379633A20253E
:10076000640A000054494D455220696E74657272E6
:1007700075707420636F6E74726F6C6C6572206933
:100780007320206E756C6C2E0000000054494D459E
:100790005220696E746572727570742068616E643F
:1007A0006C657220726567697374726174696F6ECB
:1007B000206661696C65640043505520696E7465FC
:1007C000727275707420656E61626C652066616915
:1007D0006C656400101112131415161718191A1BE2
:1007E0001C1D1E1F00000000000000000000000093
:1007F00000000000000000000000000000000000F9
:1008000000000000000000000000000000000000E8
:1008100000000000000000000000000000000000D8
:1008200000000000000000000000000000000000C8
:1008300000000000000000000000000000000000B8
:1008400000000000232D302B20000000686C4C00BD
:1008500065666745464700003031323334353637F8
:1008600038394142434445460000000030313233BC
:1008700034353637383961626364656600000000DC
:100880000001020203030303040404040404040437
:100890000505050505050505050505050505050508
:1008A00006060606060606060606060606060606E8
:1008B00006060606060606060606060606060606D8
:1008C00007070707070707070707070707070707B8
:1008D00007070707070707070707070707070707A8
:1008E0000707070707070707070707070707070798
:1008F0000707070707070707070707070707070788
:100900000808080808080808080808080808080867
:100910000808080808080808080808080808080857
:100920000808080808080808080808080808080847
:100930000808080808080808080808080808080837
:100940000808080808080808080808080808080827
:100950000808080808080808080808080808080817
:100960000808080808080808080808080808080807
:1009700008080808080808080808080808080808F7
:100980009E40012044420120284201200000000036
:10099000000000003C450120704501202641012057
:1009A000004201209C4201204E4301200000000033
:1009B0000000000000000000000000000000000037
:1009C00000000000000000000000000006440120BC
:1009D000D63F0120000000000000000000000000E1
:1009E00000000000AE560120A056012074560120E0
:1009F000745601208A56012068570120CE570120E5
:100A0000CE5701207A570120CE570120CE57012022
:100A1000CE5701208C570120CE570120CE57012000
:100A2000CE5701209E570120CE570120CE570120DE
:100A3000CE570120CE570120B0570120B0570120DA
:100A4000B0570120B0570120B0570120B057012006
:100A5000B0570120B0570120B0570120B0570120F6
:100A6000B0570120B0570120B0570120B0570120E6
:100A7000B0570120B0570120305801205E5B0120A3
:100A8000425B0120000000000000000000000000A8
:100A9000000000001259012000000000EA5A012065
:100AA000165B0120000000000000000000000000B4
:100AB0000000000000000000000000000000000036
:100AC00000000000B25B01200000000000000000F8
:100AD000000000000000000000000000CE5B0120CC
:100AE000405C0120865C0120EC5C0120625D0120FD
:100AF0007C5D0120905D0120AA5D0120BE5D01208A
:100B0000205E0120825E0120E25E0120025F012062
:100B1000485F0120765F0120945F0120B45F0120CF
:100B2000B063012000000000000000000000000091
:100B30000000000000000000000000000865012027
:100B400000000000CA6501201A66012000000000B4
:100B5000000000009A6601206A6601201C620120E4
:100B6000BA61012000000000000000000000000049
:100B700000000000C26601205E670120FA670120C4
:100B80006E6801200100000020000000001BB7007B
:100B900000366E01010000001F000000030000008D
:100BA0003F000000010000002000000000366E0140
:100BB000006CDC02030000001F00000002000000C7
:100BC0003F0000000100000010000000808D5B006D
:100BD000001BB700000000001F0000000300000021
:100BE0003F0000000100000010000000001BB700E3
:100BF00000366E01010000001F000000020000002E
:100C00003F000000010000001000000000366E01EF
:100C1000006CDC02030000001F0000000200000066
:100C20001F0000000100000008000000808D5B0034
:100C3000001BB700000000001F00000003000000C0
:100C40001F0000000100000008000000001BB700AA
:100C500000366E01010000001F00000002000000CD
:100C60001F000000010000000800000000366E01B7
:100C7000006CDC02030000001F0000000200000006
:100C80000F0000000100000004000000808D5B00E8
:100C9000001BB700000000001F0000000300000060
:100CA0000F0000000100000004000000001BB7005E
:100CB00000366E01010000001F000000020000006D
:100CC0000F000000010000000400000000366E016B
:100CD000006CDC02030000001F00000002000000A6
:100CE000070000000100000002000000808D5B0092
:100CF000001BB700000000001F0000000200000001
:100D00000F0000000100000002000000001BB700FF
:100D100000366E01010000001F000000010000000D
:100D20000F000000010000000200000000366E010C
:100D3000006CDC02030000001F0000000100000046
:100D4000070000000200000001000000808D5B0031
:100D5000001BB700000000001F00000001000000A1
:100D6000070000000200000001000000001BB700A7
:100D700000366E01010000001F00000001000000AD
:100D800003000000020000000100000000366E01B8
:100D9000006CDC02030000001F00000003000000E4
:100DA000FFFFFFFF0400000001000000808D5B00DA
:100DB000001BB700000000001F000000030000003F
:100DC000000000000400000001000000001BB7004C
:100DD00000366E01010000001F000000030000004B
:100DE000FFFFFFFF040000000100000000366E015D
:100DF000006CDC02030000001F0000000200000085
:100E0000FFFFFFFF0600000001000000808D5B0077
:100E1000AAC2A200000000002300000001000000A0
:100E2000020000000600000001000000AAC2A200AB
:100E3000001BB700000000001700000003000000C6
:100E4000FFFFFFFF0600000001000000001BB700CD
:100E50000024F400010000002F0000000300000047
:100E6000FFFFFFFF06000000010000000024F40067
:100E700080A812010100000017000000020000001D
:100E8000FFFFFFFF060000000100000080A8120124
:100E9000558545010200000023000000020000000B
:100EA000FFFFFFFF0800000001000000808D5B00D5
:100EB000001BB700000000001F000000030000003E
:100EC000FFFFFFFF0800000001000000001BB7004B
:100ED00000366E01010000001F000000020000004B
:100EE000FFFFFFFF080000000100000000366E0158
:100EF000006CDC02030000001F0000000100000085
:100F0000FFFFFFFF0A00000001000000808D5B0072
:100F1000007C920000000000270000000300000099
:100F2000FFFFFFFF0A00000001000000007C9200AC
:100F3000001BB700000000001300000002000000CA
:100F4000FFFFFFFF0A00000001000000001BB700C8
:100F500000F824010100000027000000020000004A
:100F6000FFFFFFFF0A0000000100000000F824015D
:100F700000366E01010000001300000001000000B7
:100F8000FFFFFFFF0A0000000100000000366E01B5
:100F900000F04902030000002700000001000000EB
:100FA000FFFFFFFF0C00000001000000808D5B00D0
:100FB00000127A00000000002F0000000300000073
:100FC000FFFFFFFF0C0000000100000000127A008C
:100FD000001BB70000000000170000000200000026
:100FE000FFFFFFFF0C00000001000000001BB70026
:100FF0000024F400010000002F00000002000000A7
:10100000FFFFFFFF0C000000010000000024F400BF
:1010100000366E0101000000170000000100000012
:10102000FFFFFFFF0C0000000100000000366E0112
:1010300080C3C901030000002F0000000100000070
:10104000FFFFFFFF0C0000000100000080C3C9018A
:101050000048E801030000002F000000010000002C
:10106000FFFFFFFF0E00000001000000808D5B000D
:10107000B6A1680000000000370000000300000077
:10108000FFFFFFFF0E00000001000000B7A1680095
:10109000001BB700000000001B0000000200000061
:1010A000FFFFFFFF0E00000001000000001BB70063
:1010B0006D43D10001000000370000000200000075
:1010C000FFFFFFFF0E000000010000006E43D10093
:1010D00000366E01010000001B000000010000004E
:1010E000FFFFFFFF0E0000000100000000366E0150
:1010F000DB86A201030000003700000001000000B1
:10110000FFFFFFFF1000000001000000808D5B006A
:10111000001BB700000000001F00000002000000DC
:10112000FFFFFFFF1000000001000000001BB700E0
:1011300000366E01010000001F00000001000000E9
:10114000FFFFFFFF1200000001000000808D5B0028
:10115000AAC2A2000000000023000000020000005C
:10116000FFFFFFFF1200000001000000ABC2A20061
:10117000001BB7000000000011000000010000008B
:10118000FFFFFFFF1200000001000000001BB7007E
:10119000558545010100000023000000010000000A
:1011A000FFFFFFFF1400000001000000808D5B00C6
:1011B000007C9200000000002700000002000000F8
:1011C000FFFFFFFF1400000001000000007C920000
:1011D000001BB70000000000130000000100000029
:1011E000FFFFFFFF1400000001000000001BB7001C
:1011F00000F82401010000002700000001000000A9
:10120000FFFFFFFF1600000001000000808D5B0063
:10121000E82A8500000000002B000000020000000A
:10122000FFFFFFFF1600000001000000E92A850013
:10123000001BB700000000001500000001000000C6
:10124000FFFFFFFF1600000001000000001BB700B9
:10125000D1550A01010000002B0000000100000030
:10126000FFFFFFFF1800000001000000808D5B0001
:1012700000127A00000000002F00000002000000B1
:10128000FFFFFFFF180000000100000000127A00BD
:10129000001BB70000000000170000000100000064
:1012A000FFFFFFFF1800000001000000001BB70057
:1012B0000024F400010000002F00000001000000E5
:1012C000FFFFFFFF1A00000001000000808D5B009F
:1012D00027AE700000000000330000000200000094
:1012E000FFFFFFFF1A0000000100000028AE7000A1
:1012F000001BB70000000000190000000100000002
:10130000FFFFFFFF1A00000001000000001BB700F4
:101310006658E100010000003300000001000000F9
:10132000FFFFFFFF1C00000001000000808D5B003C
:10133000B6A16800000000003700000002000000B5
:10134000FFFFFFFF1C00000001000000B7A16800C4
:10135000001BB700000000001B000000010000009F
:10136000FFFFFFFF1C00000001000000001BB70092
:101370006D43D100010000003700000001000000B3
:10138000FFFFFFFF1E00000001000000808D5B00DA
:1013900000A86100000000003B0000000200000007
:1013A000FFFFFFFF1E0000000100000000A8610019
:1013B000001BB700000000001D000000010000003D
:1013C000FFFFFFFF1E00000001000000001BB70030
:1013D0000050C300010000003B00000001000000BD
:1013E000FFFFFFFF2000000001000000808D5B0078
:1013F000001BB700000000001F00000001000000FB
:10140000FFFFFFFF866B01202A6C0120F26F012095
:101410004C443072656400004C4430677265656E00
:10142000000000004C4430626C7565000000000054
:10143000BA720120F07201203A7301207C730120FE
:10144000BE730120C27A0120407B0120587B01201D
:10145000747B0120C27B0120A67B0120DE7B012062
:10146000147C0120027E0120C87C0120E07C012048
:10147000FC7C01204A7D01202E7D0120667D01201B
:101480009C7D0120EC770120AC770120327801208F
:101490005C78012088780120CE7801200E79012027
:1014A0004E79012094790120D4790120367A0120E7
:1014B000807A0120867C01200E7E01202E7E012074
:1014C000CA8401206C82012048810120AE82012063
:1014D00004830120248301202480012044800120F2
:1014E000648001209E800120D6800120108101208F
:1014F00078810120C2810120F28101203C820120FB
:1015000008150120000000006C6962676C6F73733E
:081510000000000000000000D3
:10158000411106C622C400082945EF102003294551
:10159000EF10C002B707012013850736EF10801A3D
:1015A0002945EF10A001B707012013850738EF1078
:1015B0006019B70701201385873AEF10A018B70705
:1015C00001201385073DEF10E017B70701201385B1
:1015D000873FEF102017B707012013850742EF1050
:1015E0006016B70701201385C744EF10A015B70791
:1015F000012013858747EF10E014B70701201385FA
:10160000474AEF102014B70701201385074DEF104C
:101610006013B707012013850750EF10A012B7071A
:10162000012013850753EF10E011B7070120138540
:101630000756EF102011B70701201385C758EF1088
:101640006010B70701201385875BEF10A00FB70765
:1016500001201385075EEF10E00EB7070120138508
:101660008760EF10200EB70701201385C762EF10C7
:10167000600DB707012013850765EF10A00CB707B1
:10168000012013850767EF10E00BB70701201385D2
:101690000769EF10200BB70701201385C76AEF1009
:1016A000600A2945EF0090712945EF003071B707B6
:1016B00001201385876CEF10E0080100B24022443E
:1016C00041018280011106CE22CC00102326A4FE07
:1016D0002324B4FE03A7C18F83A78190BE853A85DA
:1016E000EF20E066054723A2E1900100F24062444A
:1016F00005618280011106CE22CC26CA0010232665
:10170000A4FE23A201900325C4FEEF20606983A4F8
:10171000818F83A7818F3E85EF20C048AA862E87C0
:10172000A1650146B387B6003E853335D500330841
:10173000C700330705013A88BE8542862685EF201B
:10174000004903A7C18F83A78190BE853A85EF200A
:10175000205D010083A74190F5DF23A201900325BE
:10176000C4FEEF2020660100F2406244D2440561CD
:1017700082801D7186CEA2CCCACACEC88010B7079F
:1017800001209385C76EB70701201385076FEF20EF
:10179000A0652324A4FEB70701209385476FB707F0
:1017A00001201385076FEF2020642322A4FEB707D2
:1017B00001209385C76FB70701201385076FEF20BE
:1017C000A0622320A4FE832784FE99C7832744FEBA
:1017D00081C7832704FE89EBB70701201385477073
:1017E000EF005076854721A4032584FEEF200059A1
:1017F000032544FEEF208058032504FEEF20005807
:10180000032584FEEF20005C032544FEEF20805B6F
:10181000032504FEEF20005BEF20C048AA873E8529
:10182000EF2060452A8723ACE18E83A7818F89EB67
:10183000B707012013854772EF00D070894745AA8A
:1018400083A7818F3E85EF20A0402A8723A0E190C7
:1018500083A7019089EBB707012013850773EF0079
:10186000706E8D4769A283A701903E85EF202045C9
:10187000013BB70701209387477D9043D4439847A6
:10188000DC47232AC4FA232CD4FA232EE4FA23209B
:10189000F4FC232204FA232404FA232604FA23283E
:1018A00004FA9307803E232EF4FC232604FEB9227B
:1018B0002328A4FC232AB4FC232604FE29A813070A
:1018C00044FA930744FBBA853E8591228327C4FEE0
:1018D00085072326F4FE0327C4FE8327C4FDE340C7
:1018E000F7FE292A2324A4FC2326B4FC832784FCA6
:1018F0000328C4FC832504FD032644FDB386B740BA
:10190000368533B5A7003307C840B307A7403E87E5
:101910003685BA858327C4FD3E89FD87BE894A8600
:10192000CE86EF105072AA872E88BE85B707012099
:1019300013854775EF00504483A7818F3E85EF20C4
:10194000602C2A8723AEE18E83A7C18F89EBB7076E
:10195000012013854776EF00F05E914749A883A7E1
:10196000C18F3E85EF20A03583A7818F3E85EF2074
:10197000C02B2A8723A4E19003A7C18F83A5819060
:1019800083A7818FBE86B71701201386476C3A85DF
:10199000EF2020352322A4FC832744FC63DD0700CD
:1019A000B70701201385C778EF00D059832744FC7F
:1019B000B307F0402DA883A7019081453E85EF2015
:1019C00020362A87FD57631AF700B70701201385D1
:1019D000877BEF003057994719A8032584FE193BF0
:1019E000032544FE013B032504FE2933FDB73E8554
:1019F000F64066445649C64925618280F32500B801
:101A0000732500B0732600B8E39AC5FE82800329CF
:101A1000050083294500032A8500832AC50017E6AF
:101A2000FE5F1306265E032B0600832B4600032C65
:101A30008600832CC600032D0601832D4601334EFC
:101A40006901B3CE3B0133CF4C01B3CA5D01B30989
:101A5000DE01939F990093D97901B3E9F901B3CEDF
:101A60008E01338AEE01935F5A006E0A336AFA01DF
:101A7000334FAF01FA9A93DF3A00F60AB3EAFA015C
:101A8000032B8601832BC601032C0602832C4602FE
:101A9000032D8602832DC60233CE6901B3CE4B01DE
:101AA00033CF5C0133C92D01330ADE01931F9A0045
:101AB000135A7A01336AFA01B3CE8E01B38AEE016A
:101AC00093DF5A00EE0AB3EAFA01334FAF017A9975
:101AD000935F390076093369F901032B0603832BE1
:101AE0004603032C8603832CC603032D0604832D93
:101AF0004604334E6A01B3CE5B0133CF2C01B3C928
:101B00003D01B30ADE01939F9A0093DA7A01B3EAAA
:101B1000FA01B3CE8E013389EE01935F59006E094D
:101B20003369F901334FAF01FA9993DF3900F609B0
:101B3000B3E9F901032B8604832BC604032C0605A5
:101B4000832C4605032D8605832DC60533CE6A01F9
:101B5000B3CE2B0133CF3C0133CA4D013309DE0133
:101B6000931F9900135979013369F901B3CE8E019E
:101B7000B389EE0193DF5900EE09B3E9F901334F60
:101B8000AF017A9A935F3A00760A336AFA01032B1F
:101B90000606832B4606032C8606832CC606032DD9
:101BA0000607832D4607334E6901B3CE3B0133CF81
:101BB0004C01B3CA5D01B309DE01939F990093D92B
:101BC0007901B3E9F901B3CE8E01338AEE01935F57
:101BD0005A006E0A336AFA01334FAF01FA9A93DF63
:101BE0003A00F60AB3EAFA01032B8607832BC607ED
:101BF000032C0608832C4608032D8608832DC6086F
:101C000033CE6901B3CE4B0133CF5C0133C92D0113
:101C1000330ADE01931F9A00135A7A01336AFA01DC
:101C2000B3CE8E01B38AEE0193DF5A00EE0AB3EA17
:101C3000FA01334FAF017A99935F3900760933691E
:101C4000F901032B0609832B4609032C8609832CF3
:101C5000C609032D060A832D460A334E6A01B3CE08
:101C60005B0133CF2C01B3C93D01B30ADE01939F61
:101C70009A0093DA7A01B3EAFA01B3CE8E0133897E
:101C8000EE01935F59006E093369F901334FAF01DB
:101C9000FA9993DF3900F609B3E9F901032B860AB3
:101CA000832BC60A032C060B832C460B032D860BB5
:101CB000832DC60B33CE6A01B3CE2B0133CF3C014B
:101CC00033CA4D013309DE01931F9900135979017D
:101CD0003369F901B3CE8E01B389EE0193DF590068
:101CE000EE09B3E9F901334FAF017A9A935F3A00F5
:101CF000760A336AFA01032B060C832B460C032C5D
:101D0000860C832CC60C032D060D832D460D334EF9
:101D10006901B3CE3B0133CF4C01B3CA5D01B309B6
:101D2000DE01939F990093D97901B3E9F901B3CE0C
:101D30008E01338AEE01935F5A006E0A336AFA010C
:101D4000334FAF01FA9A93DF3A00F60AB3EAFA0189
:101D5000032B860D832BC60D032C060E832C460EFB
:101D6000032D860E832DC60E33CE6901B3CE4B01F3
:101D700033CF5C0133C92D01330ADE01931F9A0072
:101D8000135A7A01336AFA01B3CE8E01B38AEE0197
:101D900093DF5A00EE0AB3EAFA01334FAF017A99A2
:101DA000935F390076093369F901032B060F832B02
:101DB000460F032C860F832CC60F032D0610832D90
:101DC0004610334E6A01B3CE5B0133CF2C01B3C949
:101DD0003D01B30ADE01939F9A0093DA7A01B3EAD8
:101DE000FA01B3CE8E013389EE01935F59006E097B
:101DF0003369F901334FAF01FA9993DF3900F609DE
:101E0000B3E9F901032B8610832BC610032C0611AE
:101E1000832C4611032D8611832DC61133CE6A0102
:101E2000B3CE2B0133CF3C0133CA4D013309DE0160
:101E3000931F9900135979013369F901B3CE8E01CB
:101E4000B389EE0193DF5900EE09B3E9F901334F8D
:101E5000AF017A9A935F3A00760A336AFA01032B4C
:101E60000612832B4612032C8612832CC612032DD6
:101E70000613832D4613334E6901B3CE3B0133CF96
:101E80004C01B3CA5D01B309DE01939F990093D958
:101E90007901B3E9F901B3CE8E01338AEE01935F84
:101EA0005A006E0A336AFA01334FAF01FA9A93DF90
:101EB0003A00F60AB3EAFA01032B8613832BC61302
:101EC000032C0614832C4614032D8614832DC6146C
:101ED00033CE6901B3CE4B0133CF5C0133C92D0141
:101EE000330ADE01931F9A00135A7A01336AFA010A
:101EF000B3CE8E01B38AEE0193DF5A00EE0AB3EA45
:101F0000FA01334FAF017A99935F3900760933694B
:101F1000F901032B0615832B4615032C8615832CFC
:101F2000C615032D0616832D4616334E6A01B3CE11
:101F30005B0133CF2C01B3C93D01B30ADE01939F8E
:101F40009A0093DA7A01B3EAFA01B3CE8E013389AB
:101F5000EE01935F59006E093369F901334FAF0108
:101F6000FA9993DF3900F609B3E9F901032B8616D4
:101F7000832BC616032C0617832C4617032D8617B2
:101F8000832DC61733CE6A01B3CE2B0133CF3C016C
:101F900033CA4D013309DE01931F990013597901AA
:101FA0003369F901B3CE8E01B389EE0193DF590095
:101FB000EE09B3E9F901334FAF017A9A935F3A0022
:101FC000760A336AFA01032B0618832B4618032C72
:101FD0008618832CC618032D0619832D4619334EF7
:101FE0006901B3CE3B0133CF4C01B3CA5D01B309E4
:101FF000DE01939F990093D97901B3E9F901B3CE3A
:102000008E01338AEE01935F5A006E0A336AFA0139
:10201000334FAF01FA9A93DF3A00F60AB3EAFA01B6
:10202000032B8619832BC619032C061A832C461AF8
:10203000032D861A832DC61A33CE6901B3CE4B0108
:1020400033CF5C0133C92D01330ADE01931F9A009F
:10205000135A7A01336AFA01B3CE8E01B38AEE01C4
:1020600093DF5A00EE0AB3EAFA01334FAF017A99CF
:10207000935F390076093369F901032B061B832B23
:10208000461B032C861B832CC61B032D061C832D8D
:10209000461C334E6A01B3CE5B0133CF2C01B3C96A
:1020A0003D01B30ADE01939F9A0093DA7A01B3EA05
:1020B000FA01B3CE8E013389EE01935F59006E09A8
:1020C0003369F901334FAF01FA9993DF3900F6090B
:1020D000B3E9F901032B861C832BC61C032C061DB8
:1020E000832C461D032D861D832DC61D33CE6A010C
:1020F000B3CE2B0133CF3C0133CA4D013309DE018E
:10210000931F9900135979013369F901B3CE8E01F8
:10211000B389EE0193DF5900EE09B3E9F901334FBA
:10212000AF017A9A935F3A00760A336AFA01032B79
:10213000061E832B461E032C861E832CC61E032DD3
:10214000061F832D461F334E6901B3CE3B0133CFAB
:102150004C01B3CA5D01B309DE01939F990093D985
:102160007901B3E9F901B3CE8E01338AEE01935FB1
:102170005A006E0A336AFA01334FAF01FA9A93DFBD
:102180003A00F60AB3EAFA01032B861F832BC61F17
:10219000032C0620832C4620032D8620832DC62069
:1021A00033CE6901B3CE4B0133CF5C0133C92D016E
:1021B000330ADE01931F9A00135A7A01336AFA0137
:1021C000B3CE8E01B38AEE0193DF5A00EE0AB3EA72
:1021D000FA01334FAF017A99935F39007609336979
:1021E000F901032B0621832B4621032C8621832C06
:1021F000C621032D0622832D4622334E6A01B3CE1B
:102200005B0133CF2C01B3C93D01B30ADE01939FBB
:102210009A0093DA7A01B3EAFA01B3CE8E013389D8
:10222000EE01935F59006E093369F901334FAF0135
:10223000FA9993DF3900F609B3E9F901032B8622F5
:10224000832BC622032C0623832C4623032D8623AF
:10225000832DC62333CE6A01B3CE2B0133CF3C018D
:1022600033CA4D013309DE01931F990013597901D7
:102270003369F901B3CE8E01B389EE0193DF5900C2
:10228000EE09B3E9F901334FAF017A9A935F3A004F
:10229000760A336AFA01032B0624832B4624032C87
:1022A0008624832CC624032D0625832D4625334EF4
:1022B0006901B3CE3B0133CF4C01B3CA5D01B30911
:1022C000DE01939F990093D97901B3E9F901B3CE67
:1022D0008E01338AEE01935F5A006E0A336AFA0167
:1022E000334FAF01FA9A93DF3A00F60AB3EAFA01E4
:1022F000032B8625832BC625032C0626832C4626F6
:10230000032D8626832DC62633CE6901B3CE4B011D
:1023100033CF5C0133C92D01330ADE01931F9A00CC
:10232000135A7A01336AFA01B3CE8E01B38AEE01F1
:1023300093DF5A00EE0AB3EAFA01334FAF017A99FC
:10234000935F390076093369F901032B0627832B44
:102350004627032C8627832CC627032D0628832D8A
:102360004628334E6A01B3CE5B0133CF2C01B3C98B
:102370003D01B30ADE01939F9A0093DA7A01B3EA32
:10238000FA01B3CE8E013389EE01935F59006E09D5
:102390003369F901334FAF01FA9993DF3900F60938
:1023A000B3E9F901032B8628832BC628032C0629C1
:1023B000832C4629032D8629832DC62933CE6A0115
:1023C000B3CE2B0133CF3C0133CA4D013309DE01BB
:1023D000931F9900135979013369F901B3CE8E0126
:1023E000B389EE0193DF5900EE09B3E9F901334FE8
:1023F000AF017A9A935F3A00760A336AFA01032BA7
:10240000062A832B462A032C862A832CC62A032DD0
:10241000062B832D462B334E6901B3CE3B0133CFC0
:102420004C01B3CA5D01B309DE01939F990093D9B2
:102430007901B3E9F901B3CE8E01338AEE01935FDE
:102440005A006E0A336AFA01334FAF01FA9A93DFEA
:102450003A00F60AB3EAFA01032B862B832BC62B2C
:10246000032C062C832C462C032D862C832DC62C66
:1024700033CE6901B3CE4B0133CF5C0133C92D019B
:10248000330ADE01931F9A00135A7A01336AFA0164
:10249000B3CE8E01B38AEE0193DF5A00EE0AB3EA9F
:1024A000FA01334FAF017A99935F390076093369A6
:1024B000F901032B062D832B462D032C862D832C0F
:1024C000C62D032D062E832D462E334E6A01B3CE24
:1024D0005B0133CF2C01B3C93D01B30ADE01939FE9
:1024E0009A0093DA7A01B3EAFA01B3CE8E01338906
:1024F000EE01935F59006E093369F901334FAF0163
:10250000FA9993DF3900F609B3E9F901032B862E16
:10251000832BC62E032C062F832C462F032D862FAC
:10252000832DC62F33CE6A01B3CE2B0133CF3C01AE
:1025300033CA4D013309DE01931F99001359790104
:102540003369F901B3CE8E01B389EE0193DF5900EF
:10255000EE09B3E9F901334FAF017A9A935F3A007C
:10256000760A336AFA0123A0250123A2350123A4A8
:10257000450123A65501828039713EDA2ED232D42C
:1025800036D63AD842DC46DE97F7FE5F93878782DD
:1025900022CC804326CA06CEAA8409C41C4C99E3E7
:1025A0002285D5230C4454102686228536C6EF009A
:1025B0007024F2406244D24421618280011197E785
:1025C000FE5F9387277F22CC804306CEAA8519C45D
:1025D0001C4C89E72AC622857D23B24510442285FA
:1025E0006244F240056109A0011122CC06CE2A8482
:1025F00001C91C4D91E732C62EC471233246A24553
:1026000097E7FFFF938747206315F60250401C466B
:10261000FD171CC663DF0702184E63C7E70093F778
:10262000F50F29476397E70222856244F24005616E
:102630000DA297E7FFFF9387271F6314F60010444E
:10264000F9B797E7FFFF9387271AE312F6FC504488
:102650007DBF1C4213F5F50F1387170018C22380A6
:10266000B700F240624405618280011126CA4AC85F
:1026700006CE22CC4EC652C4AA842E8901C51C4D5A
:1026800091E311239C4C804499E32685ED2997E73B
:10269000FFFF93876717631CF402C0408357C40091
:1026A000A18BB1C71C48A1C7FD59294A1C448345C9
:1026B0000900FD17B1E91CC463DE07062286A9459F
:1026C00026854128FD576308F502294535A097E77F
:1026D000FFFF938767156314F4008044C1B797E741
:1026E000FFFF93876710E31BF4FAC04445BFA28540
:1026F0002685052255D97D55F2406244D24442498F
:10270000B249224A056182801CC4050963D70700CB
:10271000184C63CBE700638945011C401387170001
:1027200018C02380B70059B7228626851D20E31FD5
:1027300035F7D1B71C401387170018C029472380ED
:10274000E70061B797E7FE5F9387C766AA8588436E
:1027500029BF011122CC26CA4AC806CE4EC6AA8479
:102760002E89328401C51C4D91E3312997E7FFFF83
:10277000938787096319F406C0401C4C1CC4835717
:10278000C400A18BC9C31C48BDCF1C480840937925
:10279000F90F1379F90F1D8D5C486346F500A2858A
:1027A0002685E9242DE51C440505FD171CC41C40A5
:1027B0001387170018C0238037015C486389A7007E
:1027C0008357C400858B81CBA9476316F900A28586
:1027D0002685692C0DEDF24062444A85D244424977
:1027E000B2490561828097E7FFFF9387E70363148F
:1027F000F400804459B797E7FFFF9387E7FEE31E95
:10280000F4F6C0449DBFA285268521203DDD7D597B
:10281000D9B7411197E7FE5F9387C75926C2844312
:1028200022C44AC006C62A892E8489C49C4C99E3D6
:102830002685912E97E7FFFF938707FD631CF4021F
:10284000C0400317C40093170701C18393F68700A4
:10285000B5EE93F607019DEEA5472320F900136717
:1028600007042316E4007D55B240224492440249F5
:102870004101828097E7FFFF938707FB6314F40011
:102880008044C1B797E7FFFF938707F6E31BF4FA8D
:10289000C04445BF918B8DC74C5889C993074404E8
:1028A0006384F5004A85A12B232A04028357C400C0
:1028B0002322040093F7B7FD2316F4001C481CC024
:1028C0008357C40093E787002316F4001C4881EF68
:1028D0008357C4001307002093F707286385E70098
:1028E000A2854A85BD218357C40013F7170005C789
:1028F0005C4823240400B307F0401CCC1C4801456D
:10290000A5F78317C40013F7070839DF93E7070417
:102910002316F40089BF898B014791E3584818C4F6
:10292000F1BF83D7C500011122CC26CA06CE4AC802
:102930004EC613F78700AA842E8465E7D841634703
:10294000E000B8416344E0000145C1A058546DDF88
:1029500003A904009396370123A0040063DE060652
:1029600068488357C400918B99C75C401D8D5C58A3
:1029700099C33C401D8D5C540C502A8681462685A7
:102980008297FD570357C400631DF5009440F54737
:1029900063E4D708B70740208507B3D7D700858BF6
:1029A000A5CF1C48232204001CC09317370163D80D
:1029B0000700FD576314F5009C4091E368C84C582C
:1029C00023A02401D1D1930744046384F500268514
:1029D0003D21232A04028DBF0C50854601462685E1
:1029E0000297FD57E31FF5F69C40A5DF7547638509
:1029F000E70059476395E70023A02401B1B7835747
:102A0000C40093E707042316F400F2406244D24462
:102A10004249B24905618280136707042316E40026
:102A2000EDB783A90501E38109F203A905008D8BA8
:102A300023A0350133093941014791E3D84918C42E
:102A4000E35420F11C540C50CA864E86268582978A
:102A5000634AA0008357C4007D5593E707042316FB
:102A6000F40065B7AA993309A940D9BF9C49B9CFE9
:102A7000011122CC06CE2A8411C51C4D81E72EC639
:102A80001922B24597E7FFFF938707D8639BF500AC
:102A90004C408397C50095C722856244F24005618A
:102AA00049B597E7FFFF938727D86394F5000C4457
:102AB000CDB797E7FFFF938727D3E39CF5FC4C4402
:102AC000C9BFF240624401450561828001458280B0
:102AD000411122C406C62A842316B5002317C50057
:102AE00023200500232205002324050023220506B8
:102AF00023280500232A0500232C050021468145B3
:102B00001305C505ED24970700009387077B5CD06C
:102B1000970700009387677D1CD497170000938761
:102B2000A7815CD4971700009387678400D01CD8D6
:102B3000B24022444101828097050000938545F30D
:102B4000B9A2411126C2130680069384F5FFB3840F
:102B5000C4024AC02E8922C406C693854407B12602
:102B60002A8419C92320050023222501310508C420
:102B7000138684068145A52C2285B24022449244C6
:102B80000249410182801C4DBDE3411106C622C4A9
:102B900097070000938787FA1CD597E7FE5F938716
:102BA000A7219C4323240504232605042328050488
:102BB0006314F50085471CCD2A841D2848C0228552
:102BC000052808C422852D2048C448400146914567
:102BD000013708440546A545E53D48440946C94531
:102BE000C53D85471CCCB240224441018280828091
:102BF000411197E7FE5F9387271C26C284434AC092
:102C000006C69C4C22C42A8999E32685AD3F93844D
:102C100084048044DC40FD1763D607009C40B1CF9C
:102C20008440C5BF0317C40031E7C177850723225D
:102C300004062320040023220400232404005CC48F
:102C400023280400232A0400232C04002146814564
:102C50001305C405692A232A0402232C0402232411
:102C60000404232604042285B240224492440249EB
:102C7000410182801304840679BF91454A85D1358C
:102C800088C02A8451FDB1472320F900E9BF79713A
:102C900022D44AD052CC56CA5AC85EC606D626D2CC
:102CA0004ECE2A8AAE8A130485040149054BFD5B8A
:102CB00009ECB25022544A8592540259F249624AB0
:102CC000D24A424BB24B456182800444832944007E
:102CD000FD1963D409000040E1BF83D7C400637BC2
:102CE000FB008397E40063877701A6855285829A6B
:102CF0003369A90093848406E1BF1971A6DAAE8412
:102D00008395E500A2DC86DE328463DC050083D790
:102D1000C40023A0060093F707089DE39307004033
:102D200015A0300836C64D25B246E34205FE72476F
:102D3000BD67F98F7977BA9793B717009CC2F9BF2F
:102D4000930700041CC0F6506654D654014509612F
:102D5000828083D7C500011122CC06CE26CA4AC87C
:102D6000898B2E8489CF930774041CC01CC88547A7
:102D70005CC8F2406244D2444249056182807400DA
:102D80003000AA849D3FA2452A892685392A01ED73
:102D90008317C40013F7072069FFF19B93E727000F
:102DA0002316F400C9B797070000938727D99CD44E
:102DB0008357C40008C008C893E707082316F40027
:102DC000A2475CC8B24789CF8315E40026851D253C
:102DD00001C98357C400F19B93E717002316F40041
:102DE0008357C4003369F9002316240159B72A8395
:102DF00011C62300B3007D16050365FE8280CDC594
:102E000083A7C5FF411122C406C626C21384C5FF8D
:102E100063D307003E94AA84B92597E7FE5F9387A2
:102E2000E7FE9C4389EF2322040097E7FE5F23AF70
:102E300087FC2244B24026859244410135A5637E39
:102E4000F40014403307D4006396E7009843DC4352
:102E5000369718C05CC0D1BFBA87D84319C3E37D89
:102E6000E4FE94433386D700631F86001040B29679
:102E700094C33386D700E31EC7FA10435843B29673
:102E800094C3D8C37DB76375C400B1479CC055B720
:102E90001040B306C4006316D70014435843B296DB
:102EA00014C058C0C0C371B78280011126CA938470
:102EB0003500F19806CE22CC4AC84EC6A104B147CF
:102EC00063F7F404B14463E6B4042A89692B97E7F5
:102ED000FE5F9387A7F398433A8431E497E7FE5F58
:102EE000938707F39C4381EB81454A85452697E705
:102EF000FE5F23AFA7F0A6854A85492EFD596319C9
:102F00003507B1472320F9004A85B92B29A0E3DC16
:102F100004FAB1471CC10145F2406244D24442491F
:102F2000B249056182801C40858F63C00704AD46AD
:102F300063F6F6001CC03E9404C001A85C40631414
:102F4000870217E7FE5F2323F7EC4A85312B130531
:102F5000B4009307440061993307F54055DF3A9474
:102F6000898F1CC055BF5CC3CDB722874040B5B721
:102F7000130435007198E30185FCB305A4404A852C
:102F80003126E31B35FBB5BF1C46FD171CC663DAB3
:102F90000700184E63C5E700A9476394F5006FF07A
:102FA0004FFB1C422E851387170018C22380B700E1
:102FB0008280011122CC26CA4AC84EC652C406CE0F
:102FC0002A89AE893284B304D6007D5A63149400F2
:102FD000014509A8834504004E864A8575370504D6
:102FE000E31645FFF2406244D2444249B249224AC4
:102FF00005618280357122CD26CB4AC94EC706CFE6
:1030000052C556C35AC1DEDEE2DCE6DAAA89AE84D6
:103010003289368401C51C4D91E3B53697D7FFFF41
:103020009387877E639BF40C83A4490083D7C400F5
:10303000A18BF5C79C48E5C793070002A304F102E2
:103040009307000302D22305F10222C6930B50021C
:1030500097DAFFFF938A4A7F054C294B4A848347BE
:10306000040099C36390770FB30C2441638D0C0067
:10307000E6864A86A6854E852D3FFD576306F51EDA
:103080009256E69636D283470400638F071CFD579D
:103090001309140002C802CE3ECA02CCA3090104DF
:1030A00082D483450900154656854D261304190020
:1030B000C24759E913F7070109C713070002A3091B
:1030C000E10413F7870009C71307B002A309E1045D
:1030D000834609001307A0026380E608F2474A848A
:1030E000814625460347040093051400130707FD96
:1030F0006379E60AB5CA3ECE85A897D7FFFF9387C6
:10310000A7726395F40083A489000DB797D7FFFFDA
:103110009387876DE39CF4F083A4C90001BFA68563
:103120004E85EFF00FEF09D97D55FA406A44DA4435
:103130004A49BA492A4A9A4A0A4BF65B665CD65C07
:103140000D618280050421BF330555413315AC0064
:10315000C98F3EC82289B1B732479306470018434A
:1031600036C6634907023ACE034704009307E002DC
:10317000631FF704034714009307A002631BF702C1
:10318000B2470904138747009C433AC663C107024C
:103190003ECA35A83307E04093E727003ACE3EC841
:1031A000E1B7B387670385462E84BA9725BFFD57DD
:1031B000C5B7050402CA8146814725460347040076
:1031C00093051400130707FD6376E606F1F28345C5
:1031D00004000D4617D5FFFF13058567852C11CD1B
:1031E00097D7FFFF9387C7661D8D93070004B3979A
:1031F000A700424505045D8D2AC883450400194691
:1032000017D5FFFF13050565130914002304B10248
:10321000352C3DC197D7FEDF9387C7DE95E7424740
:10322000B2471377071009CF91073EC69257D2973E
:103230003ED22DB5B387670385462E84BA97BDBFAE
:103240009D07E19BA107D5B77800970600009386FC
:1032500086D626860C084E8597000000E700000001
:10326000FD572A8AE314F5FC83D7C40093F70704BB
:10327000E39C07EA125555BD780097060000938637
:1032800086D326860C084E85FD24D9BF411122C461
:103290002A842E8523A6019006C6EF507005FD579F
:1032A0006317F5009387C1909C4391C31CC0B24043
:1032B000224441018280411122C42E848395E5007D
:1032C00006C6992B634905007C48AA977CC8B24082
:1032D0002244410182808357C4007D777D17F98F96
:1032E0002316F400EDB783D7C500011122CC26CAFE
:1032F0004AC84EC606CE93F70710AA842E84328998
:10330000B68991C78395E50089460146092A835706
:10331000C4007D777D17F98F2316F4008315E40030
:103320006244F240CE864A86B24942492685D2445A
:1033300005613DA8411122C42E848395E50006C68F
:10334000F928FD570357C400631BF500FD77FD17EF
:10335000F98F2316F400B240224441018280856730
:10336000D98F2316F40068C8FDB78395E50005A83A
:10337000411122C42A842E85B285368623A6019067
:1033800006C6EF50807CFD576317F5009387C19008
:103390009C4391C31CC0B240224441018280411130
:1033A00022C42A842E8523A6019006C6EF50806889
:1033B000FD576317F5009387C1909C4391C31CC0D0
:1033C000B240224441018280411122C42A842E85C8
:1033D000B28523A6019006C6EF50E067FD5763173C
:1033E000F5009387C1909C4391C31CC0B240224416
:1033F00041018280411122C42A842E8523A6019096
:1034000006C6EF50A067FD576317F5009387C1907C
:103410009C4391C31CC0B2402244410182804111AF
:1034200022C42A842E85B285368623A6019006C63C
:10343000EF50C066FD576317F5009387C1909C431A
:1034400091C31CC0B24022444101828093F5F50F24
:103450002A966314C5000145828083470500E38DE9
:10346000B7FE0505FDB782808280797156CA9C49F6
:10347000BA8A984522D426D24ECE52CC06D64AD00D
:103480005AC85EC6AA892E84B284368A63D3E700FE
:10349000BA879CC00347340419C385079CC01C40ED
:1034A00093F7070281C79C4089079CC00329040049
:1034B00013796900631A0900130B9401FD5B5C44E6
:1034C0009840998F634CF9041C408346340493F769
:1034D0000702B336D000A5EB13063404D2854E851F
:1034E000829AFD576303F5041C4011469840998B5E
:1034F000544481446397C700B384E64063D3040017
:1035000081441C4418486354F700998FBE940149C4
:1035100069047D5B63982405014509A885465A86A0
:10352000D2854E85829A631E75017D55B250225414
:1035300092540259F249624AD24A424BB24B456117
:1035400082800509ADBF3307D40013060003A30131
:10355000C7040347540493871600A2978906A381E2
:10356000E7049DBF85462286D2854E85829AE30E6A
:1035700065FB050945B7797122D426D24AD04ECED3
:1035800006D652CC56CA5AC8B68983C68501930757
:10359000E0063289AA842E84138635046380F61EE1
:1035A00063E2D706930730066382F60A63EDD7001D
:1035B000638A061E930780056386F616930A240421
:1035C0002301D40469A8930740066386F600930795
:1035D0009006E395F6FE1C40084393F60708930512
:1035E0004500C1C21C410CC363D807001307D002B9
:1035F000B307F040A301E40497D6FFFF93860626A5
:10360000294765A0930730076382F61A63EFD70056
:103610009307F006638FF60493070007E390F6FA2A
:103620009C4193E707029CC109A893075007638256
:10363000F60493078007E393F6F893078007A30245
:10364000F40497D6FFFF9386A622DDA01C43938A3D
:103650002504938647009C4314C32381F5048547C2
:10366000ADA293F607041C410CC3BDDEC207C1879F
:10367000A5BF0C401C4313F80508138547006305DC
:10368000080008C39C4339A093F5050408C3FDD97D
:1036900083D707001307F006638AE60C97D6FFFF6F
:1036A0009386C61B2947A30104044C400CC463C580
:1036B000050008406D9908C099E3B28A91CDB28A9D
:1036C000B3F5E702FD1AB69583C505002380BA005D
:1036D000B3D5E70263F2E70AA147631EF7001C4077
:1036E000858B91CB58401C4863C7E70093070003C4
:1036F000A38FFAFEFD1A3306564110C84E87CA86BC
:103700007000A285268595337D5A6314450D7D553D
:10371000B250225492540259F249624AD24A424B60
:1037200045618280A382D50497D6FFFF9386061356
:103730000C40084313F805081C41110563000802FA
:1037400008C313F7150001C793E505020CC04147F4
:10375000B9FB0C4093F5F5FD0CC0B1B713F80504A7
:1037600008C3E30008FEC207C183E1BF97D6FFFF8D
:103770009386C60E214705BFAE8799B794411C4377
:10378000CC4913F80608138547006306080008C3F0
:103790009C438CC301A808C393F606049C43F5DA46
:1037A0002390B70023280400B28A89BF1C43D0416C
:1037B00081459386470014C383AA07005685793153
:1037C00001C53305554148C05C401CC8A301040431
:1037D00035B714485686CA8526858299E30945F38C
:1037E0001C40898B8DE7B2474844E353F5F23E8590
:1037F00005B785465686CA8526858299E30965F10F
:10380000050A5C443247998FE345FAFEE9BF014A55
:10381000930A94017D5BF5B7411122C42A842E8559
:10382000B285368623A6019006C6EF50C029FD5703
:103830006317F5009387C1909C4391C31CC0B240AD
:10384000224441018280AE87328836872A8363967C
:10385000062097D8FFFF9388E80263FEC50A4167F8
:103860006374E60A1307F00F3337C7000E07B35629
:10387000E600B69883C60800369793060002998E34
:1038800099CAB397D7003357E5003318D600B3650C
:10389000F7003313D5001355080133F7A5021316AB
:1038A0000801418293560301B3D5A5024207D98E80
:1038B000B307B6022E8763FCF600C2961387F5FFA6
:1038C00063E7060163F5F6001387E5FFC2969D8E58
:1038D000B3F7A602420313530301B3D6A602C207ED
:1038E00033E36700B305D6023685637BB3004293AA
:1038F0001385F6FF636603016374B3001385E6FF67
:103900004207498F81454DA8B70600014147E36052
:10391000D6F66147A9BF01E6854633D8C602C1661F
:10392000637ED8089306F00F63F306012147B35670
:10393000E800B69883C60800BA9613070002158FF0
:1039400049E7B387074185451356080193180801D5
:1039500093D808019356030133F7C702B3D7C702C0
:103960004207D98E3385F8023E8763FCA600C296D3
:103970001387F7FF63E7060163F5A6001387E7FFE8
:10398000C296898EB3F7C602420313530301B3D61E
:10399000C602C20733E36700B388D8023685637B6B
:1039A000130142931385F6FF6366030163741301E9
:1039B0001385E6FF4207498F3A858280B7060001EA
:1039C0004147E366D8F661479DB73318E800B3D5A1
:1039D000D7003313E500B356D50013550801B3974C
:1039E000E70033F7A502B3E8F60093170801C18397
:1039F00013D60801B3D5A5024207518FB386B7028B
:103A00002E86637CD70042971386F5FF6367070114
:103A10006375D7001386E5FF4297B306D74033F7A7
:103A2000A602C20893D80801B3D6A6024207B385FE
:103A3000D702B3671701368763FCB700C2971387B5
:103A4000F6FF63E7070163F5B7001387E6FFC29748
:103A50008D8F93150601D98DC5BD63E2D5144167DD
:103A600063FEE6021308F00F3337D8000E0733D891
:103A7000E60097D5FFFF9385E5E0C29503C80500F2
:103A8000930500023A98B385054185E10547E3E5D2
:103A9000F6F23335C5001347150039BFB7050001ED
:103AA0004147E3E6B6FC6147D9B733570601B39601
:103AB000B600D98E93DE060133D70701B378D7035A
:103AC000B397B700335805013363F80093970601A5
:103AD000C183135803013316B6003357D703C20806
:103AE00033E80801338FE7023A8E637CE8013698A9
:103AF000130EF7FF6367D8006375E801130EE7FF45
:103B000036983308E841B378D8033358D803C2084D
:103B1000B38E070393170301C183B3E7F80042870D
:103B200063FCD701B6971307F8FF63E7D70063F587
:103B3000D7011307E8FFB697420EB387D741C16E8E
:103B40003367EE001388FEFF3373070193580701B4
:103B5000337806014182330E0303338808039356FA
:103B60000E013303C30242939A96B388C80263F3EB
:103B70000601F69813D60601B29863E01703E393A3
:103B800017D9C167FD17FD8EC206337EFE003315BF
:103B9000B500F2968145E371D5E27D17A5B3814565
:103BA000014719BD011106CE22CC00102326A4FE28
:103BB0008327C4FE9C439C470325C4FE8297AA87A3
:103BC0002E883E85C285F2406244056182800111E3
:103BD00006CE22CC00102326A4FE2320B4FE2322EE
:103BE000C4FE8327C4FE9C43DC47832504FE0326D2
:103BF00044FE0325C4FE8297AA873E85F2406244B4
:103C000005618280011106CE22CC00102326A4FE7D
:103C10008327C4FE9C439C4B0325C4FE8297AA873E
:103C20003E85F240624405618280011106CE22CCBD
:103C300000102326A4FE8327C4FE9C43DC4B0325EF
:103C4000C4FE8297AA873E85F24062440561828065
:103C5000011106CE22CC00102326A4FE8327C4FE29
:103C60009C43DC570325C4FE8297AA873E85F24019
:103C7000624405618280011122CE00102326A4FE39
:103C80008327C4FE99EBB71700800327C4FE0A07F9
:103C9000938787DBBA979C4311A081473E85724486
:103CA00005618280011122CE0010F32740F1232606
:103CB000F4FE8327C4FE3E857244056182800111B3
:103CC00006CE22CC00102326A4FE8327C4FE9C43EC
:103CD0009C430325C4FE82970100F24062440561C3
:103CE0008280011106CE22CC00102326A4FE2324BC
:103CF000B4FE2322C4FE2320D4FE8327C4FE9C43AB
:103D0000DC4F832604FE032644FE832584FE032520
:103D1000C4FE8297AA873E85F24062440561828094
:103D2000011106CE22CC00102326A4FE2324B4FECB
:103D30008327C4FE9C43DC53832584FE0325C4FEF5
:103D40008297AA873E85F240624405618280011114
:103D500006CE22CC00102326A4FE2324B4FE832703
:103D6000C4FE9C439C57832584FE0325C4FE829792
:103D7000AA873E85F240624405618280011106CE29
:103D800022CC00102326A4FE8327C4FE9C43DC43E0
:103D90000325C4FE82970100F240624405618280DF
:103DA000011106CE22CC00102326A4FE8327C4FED8
:103DB0009C439C470325C4FE82970100F240624465
:103DC00005618280011106CE22CC00102326A4FEBC
:103DD0008327C4FE9C43DC470325C4FE8297010071
:103DE000F240624405618280757106C722C50009F0
:103DF000232EA4F6232CB4F68327C4F781C7832788
:103E000084F799E38147BDA0930744F88325C4F75D
:103E10003E85EF40106C930744F8832584F73E8578
:103E2000EF40B067232604FE81A0B7070080138708
:103E300007368327C4FE8A07BA979C432324F4FEDF
:103E4000832784FE9C439843930744F8BE8503254B
:103E500084FE0297AA8781C7832784FE21A883272F
:103E6000C4FE85072326F4FE0327C4FE8947E3DE4C
:103E7000E7FA81473E85BA402A44496182800111B0
:103E800022CE00102326A4FE0327C4FEB71700800D
:103E90009387C7DB6315F700B707000211A08147BE
:103EA0003E85724405618280011122CE00102326D6
:103EB000A4FE0327C4FEB71700809387C7DB6314F3
:103EC000F700894711A081473E85724405618280D1
:103ED000011122CE00102326A4FE2324B4FE832742
:103EE00084FE91E7B70700809387073A21A803274C
:103EF00084FE85476317F700B70700809387073A6A
:103F000011A081473E85724405618280011122CE55
:103F100000102326A4FE2324B4FE832784FE99E305
:103F20008D4709A8032784FE85476314F7009D4742
:103F300011A081473E857244056182805D7186C60D
:103F4000A2C4CAC2CEC052DE56DC5ADA5ED862D6ED
:103F500066D48008232EA4FA8327C4FB3E85053748
:103F60002326A4FC0327C4FCB167F117BA979C432E
:103F70002324F4FC0327C4FCB167E117BA979C43E0
:103F80002322F4FC0327C4FCB167F117BA979C43C2
:103F9000032784FCE318F7FC832784FC3E8C814CC8
:103FA00093190C000149832744FC3E8A814A336BF4
:103FB0004901B3EB5901DA875E883E85C285B64078
:103FC000264416498649725AE25A525BC25B325CF9
:103FD000A25C61618280797106D622D44AD24ED029
:103FE0000018232EA4FC232CB4FC2328C4FC232A71
:103FF000D4FC8327C4FD2326F4FE8327C4FE3E851C
:10400000BD3D2324A4FE832784FD8E073E8783279E
:1040100084FE3E9791679107BA973E87FD571CC370
:10402000832784FD8E073E87832784FE3E97916712
:10403000BA973E87832704FD1CC3832744FD13D909
:1040400007008149832784FD8E073E87832784FEEE
:104050003E9791679107BA974A8798C381473E85F3
:10406000B25022541259825945618280011106CE04
:1040700022CC0010232604FEF32740F12326F4FE71
:104080008327C4FE3E85C53E2324A4FE032584FE6B
:10409000C136AA873E85F24062440561828039714B
:1040A00006DE22DC80002326A4FC0325C4FCED3BB5
:1040B0002324A4FE8327C4FC2322F4FE832744FE8A
:1040C000DC43A9EF232604FE81A08325C4FE03253B
:1040D000C4FCFD3B2320A4FE8325C4FE0325C4FCB1
:1040E0003535232EA4FC832704FE9C43DC4F832616
:1040F000C4FC01468325C4FD032504FE8297832763
:10410000C4FE85072326F4FE0327C4FE832784FE0E
:10411000E34DF7FA832744FE0547D8C30100F25068
:10412000625421618280397106DE22DC8000232600
:10413000A4FC2324B4FC2322C4FC2320D4FCFD577C
:104140002326F4FEEF1060492320A4FE232404FE5E
:10415000313F232EA4FC0325C4FCB933232CA4FC3B
:10416000032704FE85476308F700832704FE81C701
:104170008327C4FE49A0232204FE91A0832544FE88
:104180000325C4FC6133232AA4FC832544FE0325B4
:10419000C4FC3D3B2324A4FE0327C4FD832784FEE7
:1041A0006318F700032784FC832744FD6300F702AC
:1041B000232404FE832744FE85072322F4FE0327DD
:1041C00044FE832784FDE34BF7FA11A00100832707
:1041D00084FE85C3832784FE9C43DC4F832604FC36
:1041E000032644FC832584FC032584FE8297232632
:1041F000A4FE8327C4FE3E85F25062542161828072
:10420000797122D60018232EA4FC232CB4FC232A77
:10421000C4FC2328D4FCFD572326F4FE8327C4FEC8
:104220003E85325445618280011106CE22CC0010B9
:104230002326A4FEEF10603AAA873E85F24062442E
:1042400005618280797106D622D40018232EA4FC41
:10425000232CB4FCFD572326F4FE093D2324A4FEA1
:10426000832784FE95C3032784FD854763E0E70227
:10427000832784FE9C43DC43832584FD032584FE41
:1042800082972326A4FE21A0010011A0010083270C
:10429000C4FE3E85B250225445618280397106DEEB
:1042A00022DC80002326A4FC2324B4FCFD57232613
:1042B000F4FE832784FCC9C7232404FE453B232046
:1042C000A4FE0325C4FCCD36232EA4FC232204FE29
:1042D00091A0832544FE0325C4FC0D39232CA4FCA6
:1042E000832544FE0325C4FCE5362324A4FE0327CE
:1042F00004FE832784FE6318F700032784FC8327CA
:1043000084FD6300F702232404FE832744FE85070F
:104310002322F4FE032744FE8327C4FDE34BF7FA70
:1043200011A00100832784FE81CF832784FE9C4354
:10433000DC53832584FC032584FE82972326A4FE78
:104340008327C4FE3E85F250625421618280397118
:1043500006DE22DC80002326A4FC2324B4FCFD57C7
:104360002326F4FE832784FCC1CB232404FEFD39DD
:104370002320A4FE0325C4FCEFF01FB3232EA4FCCE
:10438000232204FEA1A0832544FE0325C4FCEFF0F4
:10439000FFB7232CA4FC832544FE0325C4FCEFF0C7
:1043A0003FB32324A4FE032704FE832784FE63185F
:1043B000F700032784FC832784FD6300F70223248E
:1043C00004FE832744FE85072322F4FE032744FED0
:1043D0008327C4FDE349F7FA11A00100832784FE77
:1043E00081CF832784FE9C439C57832584FC03252F
:1043F00084FE82972326A4FE8327C4FE3E85F250C6
:10440000625421618280797106D622D40018232E4D
:10441000A4FC232CB4FC232AC4FCFD572326F4FE61
:104420008327C4FD2324F4FE0325C4FDEFF03FA53C
:104430002322A4FE032784FD89476309F704032789
:1044400084FD894763C8E700032784FD8547630E21
:10445000F700F1A8032784FD8D47630DF7040327B8
:1044600084FD91476309F708D9A0832744FDCDCB8C
:10447000032584FEEFF09FACAA872E88032744FD16
:104480001CC323220701232604FE59A8832744FDC9
:10449000D1CB832744FD9C432320F4FE832704FED5
:1044A0008A073E87832744FEBA9723A00700232666
:1044B00004FE8DA8832744FDA5CB832744FD9C43A0
:1044C0002320F4FE832704FE8A073E87832744FEC9
:1044D000BA973E8785471CC30F008004832704FEDC
:1044E0008A073E87832744FEBA979C432326F4FE1F
:1044F000232604FE15A8232604FE832744FD9DC71A
:10450000832744FD9C432320F4FE832704FE8A076F
:104510003E87832744FEBA979C432326F4FE39A0A6
:10452000010031A0010021A0010011A0010083279A
:10453000C4FE3E85B250225445618280797106D610
:1045400022D40018232EA4FC232CB4FCEFF08FF50A
:10455000AA872326F4FE9307C4FE3E8689450325D9
:10456000C4FD5535AA873E85B250225445618280EC
:10457000797106D622D40018232EA4FC232CB4FC77
:10458000EFF04FF2AA872326F4FE9307C4FE3E867F
:104590008D450325C4FD853DAA873E85B250225432
:1045A00045618280011122CE00102326A4FE03273C
:1045B000C4FE938741816314F700814711A0FD5722
:1045C0003E85724405618280011122CE00102326AF
:1045D000A4FE0327C4FE938741816317F700B72722
:1045E000F4009387074011A081473E85724405611E
:1045F0008280011122CE00102326A4FE0327C4FED0
:10460000938741816317F700B70700809387073AC4
:1046100011A081473E85724405618280011122CE3E
:1046200000102326A4FE0327C4FE93874181631450
:10463000F700814711A081473E8572440561828061
:10464000011122CE00102326A4FE8327C4FE634C52
:10465000F000B71700800327C4FE0A07938787DBA3
:10466000BA979C4311A081473E85724405618280C0
:10467000011122CE0010F32740F12326F4FE8327F8
:10468000C4FE3E85724405618280011122CE001075
:10469000A147F3A707302326F4FE01007244056109
:1046A0008280011122CE0010A147F3B707302326E4
:1046B000F4FE0100724405618280011122CE0010D7
:1046C000A147F3A747302326F4FE01007244056199
:1046D0008280011122CE0010A147F3B74730232674
:1046E000F4FE0100724405618280011122CE0010A7
:1046F00093070008F3A747302326F4FE0100724415
:1047000005618280011122CE001093070008F3B7E3
:1047100047302326F4FE01007244056182800111B6
:1047200022CE0010856793870780F3A747302326A2
:10473000F4FE0100724405618280011122CE001056
:10474000856793870780F3B747302326F4FE01007F
:10475000724405618280797122D60018232EA4FC50
:104760008327C4FD0547B317F7002326F4FE8327EC
:10477000C4FEF3A747302324F4FE01003254456100
:104780008280797122D60018232EA4FC8327C4FDD1
:104790000547B317F7002326F4FE8327C4FEF3B7BB
:1047A00047302324F4FE0100325445618280011118
:1047B00006CE22CC00102326A4FE2324B4FE13052B
:1047C0004006EF40A006011106CE22CC00102326A1
:1047D000A4FE2324B4FE1305800CEF4020055D7178
:1047E00086C696C49AC29EC022DE2ADC2EDA32D851
:1047F00036D63AD43ED242D046CE72CC76CA7AC8A9
:104800007EC680081305C012EF4040021D7186CE9F
:1048100096CC9ACA9EC8A2C6AAC4AEC2B2C036DEA0
:104820003ADC3EDA42D846D672D476D27AD07ECE00
:1048300080103D3D2A87B71700800A07938787DBE2
:10484000BA979C432326F4FA8327C4FA85C7032525
:10485000C4FA45332324A4FA832784FA83A7070ED6
:104860002322F4FA832784FA83A7870D832544FA49
:104870000D4582970100F640E6425643C643364452
:10488000264596450646F2566257D2574258B258C8
:10489000225E925E025FF24F2561730020307971D3
:1048A00006D622D40018232EA4FC232CB4FCC93332
:1048B0002A87B71700800A07938787DBBA979C433C
:1048C0002326F4FEF32720342324F4FE8327C4FE9A
:1048D00095C70325C4FE313B2322A4FE832784FE13
:1048E00093F7F73F032744FE9387870E8A07BA970B
:1048F0009C438325C4FD0325C4FE82970100B2506A
:104900002254456182801D7186CE96CC9ACA9EC87B
:10491000A2C6AAC4AEC2B2C036DE3ADC3EDA42D883
:1049200046D672D476D27AD07ECE801091332A8742
:10493000B71700800A07938787DBBA979C43232623
:10494000F4FA8327C4FA85C70325C4FA5D3123240A
:10495000A4FA832784FA83A707142322F4FA83276F
:1049600084FA83A78713832544FA1D4582970100A3
:10497000F640E6425643C64336442645964506462B
:10498000F2566257D2574258B258225E925E025F88
:10499000F24F256173002030011122CE0010232632
:1049A000A4FE2324B4FE0100724405618280797163
:1049B00006D622D40018232EA4FC232CB4FC4D3997
:1049C000AA873E85B5392326A4FE0325C4FEEF1031
:1049D000802B2320A4FE2322B4FE832704FE032879
:1049E00044FEA9450146B386B70036853335F50048
:1049F0003307C800B307E5003E87B6873A88BE850F
:104A000042860325C4FEEF10602E0100B2502254EE
:104A100045618280000000000000000000000000EE
:104A20000000000000000000000000000000000086
:104A30000000000000000000000000000000000076
:104A40000000000000000000000000000000000066
:104A50000000000000000000000000000000000056
:104A60000000000000000000000000000000000046
:104A70000000000000000000000000000000000036
:104A8000197186DE96DC9ADA9ED8A2D6AAD4AED266
:104A9000B2D0B6CEBACCBECAC2C8C6C6F2C4F6C27E
:104AA000FAC07EDE0001EFF0BFBC2A87B717008096
:104AB0000A07938787DBBA979C432326F4FAF327E8
:104AC00020342324F4FAF32710342322F4FAF327B2
:104AD00030342320F4FAF3275030232EF4F88327C0
:104AE000C4FAFDCB0325C4FAEFF0BFB0232CA4F821
:104AF000832784FA93F7F73F232AF4F8832784FA6D
:104B000063DE070A032744F9930700086312F702DC
:104B1000832784F983A787392328F4F8832784F926
:104B200083A70739832504F9032544F982976DA0EB
:104B3000032744F9AD4763D7E7008327C4F993F708
:104B4000F7039DEF832684F9032744F9BA87860784
:104B5000BA978E07B69783A787092328F4F8832688
:104B600084F9032744F9BA878607BA978E07B69760
:104B700083A70709832504F9032544F98297A9A887
:104B80008327C4F913F7F70389476317F704F3275B
:104B900070302326F4F8832784F983A7C70D2328D0
:104BA000F4F88327C4F89C432324F4F8832784F87B
:104BB000832504F9032544F9829739A8032784F94A
:104BC000832744F99387870E8A07BA979C438325E6
:104BD00044F90325C4FA8297F650E6525653C65359
:104BE0003654265596550656F6466647D6474648E5
:104BF000B648264E964E064FF25F0961730020308C
:104C000000000000000000000000000000000000A4
:104C10000000000000000000000000000000000094
:104C20000000000000000000000000000000000084
:104C30000000000000000000000000000000000074
:104C40000000000000000000000000000000000064
:104C50000000000000000000000000000000000054
:104C60000000000000000000000000000000000044
:104C7000000000000000000000001D7186CE96CCF0
:104C80009ACA9EC8A2C6AAC4AEC2B2C036DE3ADC78
:104C90003EDA42D846D672D476D27AD07ECE801012
:104CA000EFF01F9D2A87B71700800A07938787DBDD
:104CB000BA979C432326F4FA8327C4FA8DC70325A9
:104CC000C4FAEFF01F932324A4FA832784FA83A75E
:104CD00087212322F4FA832784FA83A707218325D7
:104CE00044FA414582970100F640E6425643C643E6
:104CF0003644264596450646F2566257D2574258E4
:104D0000B258225E925E025FF24F2561730020303E
:104D10001D7186CE96CC9ACA9EC8A2C6AAC4AEC23F
:104D2000B2C036DE3ADC3EDA42D846D672D476D20B
:104D30007AD07ECE8010EFF0BF932A87B71700801D
:104D40000A07938787DBBA979C432326F4FA8327C5
:104D5000C4FA8DC70325C4FAEFF0BF892324A4FA4F
:104D6000832784FA83A707232322F4FA832784FA6C
:104D700083A78722832544FA454582970100F640A0
:104D8000E6425643C6433644264596450646F25605
:104D90006257D2574258B258225E925E025FF24F7B
:104DA0002561730020301D7186CE96CC9ACA9EC8AC
:104DB000A2C6AAC4AEC2B2C036DE3ADC3EDA42D8DF
:104DC00046D672D476D27AD07ECE8010EFF05F8A4B
:104DD0002A87B71700800A07938787DBBA979C4317
:104DE0002326F4FA8327C4FA8DC70325C4FAEFF00B
:104DF0005F802324A4FA832784FA83A787242322AD
:104E0000F4FA832784FA83A70724832544FA4945C3
:104E100082970100F640E6425643C6433644264593
:104E200096450646F2566257D2574258B258225E0D
:104E3000925E025FF24F2561730020301D7186CEB5
:104E400096CC9ACA9EC8A2C6AAC4AEC2B2C036DE6A
:104E50003ADC3EDA42D846D672D476D27AD07ECECA
:104E60008010EFF0FF802A87B71700800A0793872A
:104E700087DBBA979C432326F4FA8327C4FA8DC7AD
:104E80000325C4FAEFF0EFF62324A4FA832784FA6B
:104E900083A707262322F4FA832784FA83A787258A
:104EA000832544FA4D4582970100F640E642564379
:104EB000C6433644264596450646F2566257D257B3
:104EC0004258B258225E925E025FF24F2561730033
:104ED00020301D7186CE96CC9ACA9EC8A2C6AAC49E
:104EE000AEC2B2C036DE3ADC3EDA42D846D672D422
:104EF00076D27AD07ECE8010EFF08FF72A87B71760
:104F000000800A07938787DBBA979C432326F4FA2D
:104F10008327C4FA8DC70325C4FAEFF08FED23244D
:104F2000A4FA832784FA83A787272322F4FA832706
:104F300084FA83A70727832544FA51458297010005
:104F4000F640E6425643C643364426459645064655
:104F5000F2566257D2574258B258225E925E025FB2
:104F6000F24F2561730020301D7186CE96CC9ACA0F
:104F70009EC8A2C6AAC4AEC2B2C036DE3ADC3EDAD1
:104F800042D846D672D476D27AD07ECE8010EFF058
:104F90002FEE2A87B71700800A07938787DBBA9717
:104FA0009C432326F4FA8327C4FA8DC70325C4FA49
:104FB000EFF02FE42324A4FA832784FA83A7072998
:104FC0002322F4FA832784FA83A78728832544FAC7
:104FD000554582970100F640E6425643C6433644A3
:104FE000264596450646F2566257D2574258B25861
:104FF000225E925E025FF24F2561730020301D71C8
:1050000086CE96CC9ACA9EC8A2C6AAC4AEC2B2C068
:1050100036DE3ADC3EDA42D846D672D476D27AD040
:105020007ECE8010EFF0CFE42A87B71700800A0702
:10503000938787DBBA979C432326F4FA8327C4FA25
:105040008DC70325C4FAEFF0CFDA2324A4FA83270F
:1050500084FA83A7872A2322F4FA832784FA83A772
:10506000072A832544FA594582970100F640E64213
:105070005643C6433644264596450646F256625781
:10508000D2574258B258225E925E025FF24F2561BB
:10509000730020301D7186CE96CC9ACA9EC8A2C6D7
:1050A000AAC4AEC2B2C036DE3ADC3EDA42D846D638
:1050B00072D476D27AD07ECE8010EFF06FDB2A8762
:1050C000B71700800A07938787DBBA979C4323268C
:1050D000F4FA8327C4FA8DC70325C4FAEFF06FD121
:1050E0002324A4FA832784FA83A7072C2322F4FA23
:1050F000832784FA83A7872B832544FA5D4582970B
:105100000100F640E6425643C643364426459645DE
:105110000646F2566257D2574258B258225E925E05
:10512000025FF24F2561730020301D7186CE96CC50
:105130009ACA9EC8A2C6AAC4AEC2B2C036DE3ADCC3
:105140003EDA42D846D672D476D27AD07ECE80105D
:10515000EFF00FD22A87B71700800A07938787DB03
:10516000BA979C432326F4FA8327C4FA8DC70325F4
:10517000C4FAEFF00FC82324A4FA832784FA83A784
:10518000872D2322F4FA832784FA83A7072D83250A
:1051900044FA614582970100F640E6425643C64311
:1051A0003644264596450646F2566257D25742582F
:1051B000B258225E925E025FF24F2561730020308A
:1051C0001D7186CE96CC9ACA9EC8A2C6AAC4AEC28B
:1051D000B2C036DE3ADC3EDA42D846D672D476D257
:1051E0007AD07ECE8010EFF0AFC82A87B717008044
:1051F0000A07938787DBBA979C432326F4FA832711
:10520000C4FA8DC70325C4FAEFF0AFBE2324A4FA75
:10521000832784FA83A7072F2322F4FA832784FAAB
:1052200083A7872E832544FA654582970100F640BF
:10523000E6425643C6433644264596450646F25650
:105240006257D2574258B258225E925E025FF24FC6
:105250002561730020301D7186CE96CC9ACA9EC8F7
:10526000A2C6AAC4AEC2B2C036DE3ADC3EDA42D82A
:1052700046D672D476D27AD07ECE8010EFF04FBF71
:105280002A87B71700800A07938787DBBA979C4362
:105290002326F4FA8327C4FA8DC70325C4FAEFF056
:1052A0004FB52324A4FA832784FA83A787302322C7
:1052B000F4FA832784FA83A70730832544FA6945E3
:1052C00082970100F640E6425643C64336442645DF
:1052D00096450646F2566257D2574258B258225E59
:1052E000925E025FF24F2561730020301D7186CE01
:1052F00096CC9ACA9EC8A2C6AAC4AEC2B2C036DEB6
:105300003ADC3EDA42D846D672D476D27AD07ECE15
:105310008010EFF0EFB52A87B71700800A07938750
:1053200087DBBA979C432326F4FA8327C4FA8DC7F8
:105330000325C4FAEFF0EFAB2324A4FA832784FA01
:1053400083A707322322F4FA832784FA83A78731BD
:10535000832544FA6D4582970100F640E6425643A4
:10536000C6433644264596450646F2566257D257FE
:105370004258B258225E925E025FF24F256173007E
:1053800020301D7186CE96CC9ACA9EC8A2C6AAC4E9
:10539000AEC2B2C036DE3ADC3EDA42D846D672D46D
:1053A00076D27AD07ECE8010EFF08FAC2A87B717F6
:1053B00000800A07938787DBBA979C432326F4FA79
:1053C0008327C4FA8DC70325C4FAEFF08FA22324E4
:1053D000A4FA832784FA83A787332322F4FA832746
:1053E00084FA83A70733832544FA71458297010025
:1053F000F640E6425643C6433644264596450646A1
:10540000F2566257D2574258B258225E925E025FFD
:10541000F24F2561730020301D7186CE96CC9ACA5A
:105420009EC8A2C6AAC4AEC2B2C036DE3ADC3EDA1C
:1054300042D846D672D476D27AD07ECE8010EFF0A3
:105440002FA32A87B71700800A07938787DBBA97AD
:105450009C432326F4FA8327C4FA8DC70325C4FA94
:10546000EFF02F992324A4FA832784FA83A7073522
:105470002322F4FA832784FA83A78734832544FA06
:10548000754582970100F640E6425643C6433644CE
:10549000264596450646F2566257D2574258B258AC
:1054A000225E925E025FF24F2561730020301D7113
:1054B00086CE96CC9ACA9EC8A2C6AAC4AEC2B2C0B4
:1054C00036DE3ADC3EDA42D846D672D476D27AD08C
:1054D0007ECE8010EFF0CF992A87B71700800A0799
:1054E000938787DBBA979C432326F4FA8327C4FA71
:1054F0008DC70325C4FAEFF0CF8F2324A4FA8327A6
:1055000084FA83A787362322F4FA832784FA83A7B1
:105510000736832544FA794582970100F640E64232
:105520005643C6433644264596450646F2566257CC
:10553000D2574258B258225E925E025FF24F256106
:10554000730020301D7186CE96CC9ACA9EC8A2C622
:10555000AAC4AEC2B2C036DE3ADC3EDA42D846D683
:1055600072D476D27AD07ECE8010EFF06F902A87F8
:10557000B71700800A07938787DBBA979C432326D7
:10558000F4FA8327C4FA8DC70325C4FAEFF06F86B7
:105590002324A4FA832784FA83A707382322F4FA62
:1055A000832784FA83A78737832544FA7D4582972A
:1055B0000100F640E6425643C6433644264596452A
:1055C0000646F2566257D2574258B258225E925E51
:1055D000025FF24F256173002030011122CE0010CE
:1055E000F32750302326F4FE8327C4FE93F7F703F6
:1055F0002326F4FE0327C4FE8947630DF700032723
:10560000C4FE8D47630AF7000327C4FE854763077E
:10561000F70039A08D4731A0914721A0854711A0FF
:1056200081473E85724405618280797122D60018D7
:10563000232EA4FC232CB4FCF32750302326F4FEA5
:105640008327C4FE93F707FC2326F4FE832784FDFB
:105650002324F4FE0327C4FD914763E0E706832774
:10566000C4FD13972700B71701209387479EBA9769
:105670009C438287832784FE739077308327C4FE00
:1056800093E72700739057300DA8832784FE73900B
:1056900077308327C4FE93E737007390573031A8E3
:1056A000832784FE93E717007390573039A0832730
:1056B00084FEF19B73905730010001003254456124
:1056C0008280011122CE00102326A4FE0327C4FEEF
:1056D000AD476302F7040327C4FEAD4763CDE7007F
:1056E0000327C4FE8D476308F7020327C4FE9D47C6
:1056F0006303F7021DA00327C4FEC147634FF700F1
:105700000327C4FEFD4763D8E7000327C4FE9307C1
:1057100000086314F700854719A0010081473E8502
:10572000724405618280797106D622D40018232E36
:10573000A4FC232CB4FC232AC4FC232604FE8327C8
:10574000C4FD99E3FD5749A8032784FDFD4763E0A5
:10575000E708832784FD13972700B7170120938755
:10576000879FBA979C438287832744FD81C7EFE0D8
:10577000DFF18DA0EFE0FFF2B1A8832744FD81C7E0
:10578000EFE0BFF381A8EFE0DFF4A9A0832744FD99
:1057900081C7EFE09FF53DA8EFE0DFF625A883275E
:1057A00044FD81C7EFE0BFF735A0EFE01FF91DA072
:1057B000832744FD99C7832784FD3E85EFE0BFF929
:1057C00011A8832784FD3E85EFE0BFFB21A0FD5794
:1057D0002326F4FE8327C4FE3E85B2502254456141
:1057E0008280797122D60018232EA4FC232CB4FCCD
:1057F000232AC4FC8327C4FD2326F4FE032784FD4B
:10580000AD4763C2E702832744FD91CF0327C4FE5F
:10581000832784FD9387870E8A07BA97032744FD61
:1058200098C3814711A0FD573E853254456182805F
:10583000797106D622D40018232EA4FC8327C4FD38
:105840002322F4FE832744FEDC43DDEF232604FEFF
:10585000B9A0832644FE0327C4FEBA878607BA97F9
:105860008E07B69723A80708832644FE0327C4FEA5
:10587000BA878607BA978E07B69723AA07088326A2
:1058800044FE0327C4FEBA878607BA978E07B697E9
:1058900023AC07088327C4FE85072326F4FE0327CD
:1058A000C4FEFD47E3D7E7FA232404FE1DA0032727
:1058B00044FE832784FE9387870E8A07BA9737476B
:1058C00001201307E77A98C3832784FE85072324E2
:1058D000F4FE032784FEAD47E3DBE7FCF3275030FB
:1058E0002320F4FEB707012093878717032704FEC0
:1058F0006318F700B7570120938507A80145353392
:10590000832744FE0547D8C30100B25022544561A5
:105910008280797106D622D40018232EA4FC232C71
:10592000B4FC232AC4FC2328D4FC232604FE8327AA
:10593000C4FD2324F4FE032584FD6133AA8799E383
:10594000D55779AA032784FD930700086318F70049
:10595000EFF0BFC8AA8799C3CD5759A2832744FD4A
:10596000B9CF032784FD93070008631FF70083273F
:1059700084FE032744FD23A8E738832784FE0327FA
:1059800004FD23ACE73899AA832684FE032784FD0F
:10599000BA878607BA978E07B697032744FD23A8D0
:1059A000E708832684FE032784FDBA878607BA9713
:1059B0008E07B697032704FD23ACE70805A203274B
:1059C00084FDAD47630CF70C032784FDAD4763CD21
:1059D000E700032784FD8D476309F702032784FD51
:1059E0009D476301F706C5A8032784FDC1476344AB
:1059F000F70E032784FDFD4763D2E70A032784FDE2
:105A000093070008630DF706F9A0832684FE032799
:105A100084FDBA878607BA978E07B6973757012055
:105A20001307E78923A8E708832684FE032784FD5C
:105A3000BA878607BA978E07B697032704FD23AA6D
:105A4000E70869A8832684FE032784FDBA878607B2
:105A5000BA978E07B697375701201307E79A23A8FE
:105A6000E708832684FE032784FDBA878607BA9752
:105A70008E07B697032704FD23AAE70885A083278E
:105A800084FE375701201307879923A8E738832717
:105A900084FE032704FD23ACE73889A0832684FE17
:105AA000032784FDBA878607BA978E07B6973747CC
:105AB00001201307677C23A8E708832684FE0327B9
:105AC00084FDBA878607BA978E07B697032704FD29
:105AD00023AAE70821A0D1572326F4FE8327C4FE7A
:105AE0003E85B250225445618280011106CE22CCFF
:105AF00000102326A4FE2324B4FE832784FE05463B
:105B0000BE850325C4FEEFF01FC2AA873E85F24082
:105B1000624405618280011106CE22CC001023264A
:105B2000A4FE2324B4FE832784FE0146BE850325FC
:105B3000C4FEEFF05FBFAA873E85F2406244056174
