:020000042001D9
:100000009711FF5F9381814E9702000093828201D6
:100010007390523093021000638402007350107C7E
:100020009702000093828215739052301701FFDF10
:10003000130141FD63140100138181D1732540F147
:10004000814213030040137101FF6385A2001A91DE
:100050008502D5BF970000009380A0046383000051
:100060008290732540F181450146392A9700FFDFD0
:10007000938040F96383000082909702000093828E
:10008000C2007390523003230000F5BF000000004F
:100090008280232003001103E34D73FE82800684D7
:1000A0009702FFDF938202F66385020C9702FFDF5F
:1000B000938242F5F32740F1A14673B00630639670
:1000C000570A1703FFE71303E3F39723FFE793832D
:1000D00063F3630E7300753F1703FFDF130383F2AF
:1000E0009703FFDF938303F2630373005D37170306
:1000F000FF5F130323F19743FF5F9383A3F0630331
:100100007300413F1703FFDF1303C3EF9703FFDFC4
:10011000938343EF63037300AD3F1703FFDF1303C4
:1001200063EE9703FFDF9383E3ED6303730095377B
:100130001703FFDF130303ED9703FFDF938383ECC4
:1001400063037300B9371703FFDF1303A3EB9703B0
:10015000FFDF938323EB63037300253F3707000220
:1001600085471CC30F00300129A0370700021C433C
:10017000EDDFA28082800000F3222034732310344C
:10018000F3233034D5BF828006849711FF5F9381BB
:10019000E135930200006317550A976200009382CD
:1001A00062CF1703FF5F1303E3E59713FF5F9383AA
:1001B000E3B9638C6200635A730003A502009102E5
:1001C0002320A3001103E34A73FE971200009382D9
:1001D000E2251703FFE71303E3E29703FFE79383A7
:1001E00063E2638C6200635A730003A5020091020C
:1001F0002320A3001103E34A73FE0F10000017131E
:10020000FF5F1303A3B4938381916357730023208B
:1002100003001103E34D73FE1712FF5F130202B3D5
:1002200011C20296176500001305A596EF50301213
:10023000EF50701917650000130585C2EF5030119B
:10024000EF50B0418937FD5673B0463073B0463435
:10025000F3271030372704007D8F09C773B036307D
:1002600073B02630370704007D8F19C373B00618AA
:100270003707010013078702F98F89CBF327003076
:100280000967D98F73900730735030000545971573
:1002900000009385651817160000130626183120F4
:1002A000EF50500CA28082808280411106C2F3225E
:1002B00040F1130300006385620073005010F5BF26
:0A02C000EF10001C92404101828003
:0C02D000E8020120DC020120FC020120F9
:1002DC00370500801305C52D6F40D032B725F400CB
:1002EC0037050080938505401305C52D6F50405E82
:1002FC00F1653715008093850520130585CA6F506D
:02030C00A065EA
:10031000101112131415161718191A1B1C1D1E1F65
:1003200020202020202020202020202020202020CD
:1003300020205349464956452C20494E432E000063
:100340002020202020202020202020353535353544
:10035000353535353535353535353535353535354D
:1003600035353535000000002020202020202020B9
:100370002020353535352020202020202020202029
:100380002020202020202020203535353500000079
:100390002020202020202020203535353520202009
:1003A000202020202020202020202020202020204D
:1003B0002020353535350000202020202020202029
:1003C00035353535202020202020202020202020D9
:1003D00020202020202020202020203535353500E9
:1003E00020202020202020353535352020202020B9
:1003F00020203535353535353535353535353535D7
:1004000035353535353535350000000020202020C4
:100410002020353535352020202020202035353549
:10042000353535353535353535353535353535357C
:100430003535353535000000202020202035353574
:100440003520202020202020202020202020202097
:100450002020202020202020202020202020353572
:10046000353500002020202035353535202020204E
:10047000202020202020202020202020202020207C
:100480002020202020202020202020353535350038
:100490002020203535353520202020202020202008
:1004A000202020202020202020202020202020204C
:1004B0002020202020202020353535350000000068
:1004C0002020353535353535353535353535353506
:1004D00035353535353535353535353535352020F6
:1004E0002020202020202020353535353500000003
:1004F0002020203535353535202020202020202093
:10050000202020353535353535353535202020202E
:1005100020202020202020353535353500000000F2
:100520002020202020353535353520202020202062
:100530002020202020353535353520202020202052
:100540002020202020353535353500002020202082
:100550002020203535353535202020202020202032
:100560002020203520202020202020202020203561
:1005700035353535000000002020202020202020A7
:100580002035353535352020202020202020202002
:100590002020202020202020203535353535000032
:1005A00020202020202020202020203535353535E2
:1005B0002020202020202020202020202020203526
:1005C0003535353500000000202020202020202057
:1005D00020202020203535353535202020202020B2
:1005E00020202020203535353535000020202020E2
:1005F0002020202020202020202020353535353592
:100600002020202020202035353535350000000001
:1006100020202020202020202020202020202020DA
:100620002035353535352020203535353535000038
:1006300020202020202020202020202020202020BA
:10064000202020353535353535353535000000006D
:10065000202020202020202020202020202020209A
:100660002020202020353535353500002020202061
:10067000202020202020202020202020202020207A
:1006800020202035000000002020202020202020D5
:100690002020202020202057656C636F6D6520741A
:1006A0006F20536946697665210000007265640019
:1006B0004C443000677265656E000000626C7565C1
:1006C000000000004174206C65617374206F6E65DA
:1006D000206F66204C454473206973206E756C6CE6
:1006E0002E000000435055206E756C6C2E000000EB
:1006F00043505520696E7465727275707420636F13
:100700006E74726F6C6C6572206973206E756C6CA0
:100710002E0000004C45413132386379633A202580
:10072000640A000054494D455220696E7465727226
:1007300075707420636F6E74726F6C6C6572206973
:100740007320206E756C6C2E0000000054494D45DE
:100750005220696E746572727570742068616E647F
:100760006C657220726567697374726174696F6E0B
:10077000206661696C65640043505520696E74653C
:10078000727275707420656E61626C652066616955
:100790006C65640000000000000000000000000024
:1007A0000000000000000000000000000000000049
:1007B0000000000000000000000000000000000039
:1007C0000000000000000000000000000000000029
:1007D0000000000000000000000000000000000019
:1007E0000000000000000000000000000000000009
:1007F00000000000232D302B20000000686C4C000E
:100800006566674546470000303132333435363748
:10081000383941424344454600000000303132330C
:10082000343536373839616263646566000000002C
:100830000001020203030303040404040404040487
:100840000505050505050505050505050505050558
:100850000606060606060606060606060606060638
:100860000606060606060606060606060606060628
:100870000707070707070707070707070707070708
:1008800007070707070707070707070707070707F8
:1008900007070707070707070707070707070707E8
:1008A00007070707070707070707070707070707D8
:1008B00008080808080808080808080808080808B8
:1008C00008080808080808080808080808080808A8
:1008D0000808080808080808080808080808080898
:1008E0000808080808080808080808080808080888
:1008F0000808080808080808080808080808080878
:100900000808080808080808080808080808080867
:100910000808080808080808080808080808080857
:100920000808080808080808080808080808080847
:100930000A380120E4370120D037012000000000F0
:1009400000000000123A01202E3A0120FC3801205C
:10095000CC370120AE3801206038012000000000B3
:100960000000000000000000000000000000000087
:100970000000000000000000000000008A39012093
:10098000A03701200000000000000000000000006F
:1009900000000000FE3B0120103C0120323C012001
:1009A000583D0120643C01206E3C01203E3E012068
:1009B000723C0120763C0120A63C0120D63C01205F
:1009C000063D0120123E01201C3D01202E3D01204C
:1009D000343D01203C3D0120B43D0120483E012032
:1009E000804701200000000000000000000000001F
:1009F00000000000B847012000000000FC48012072
:100A0000004901200000000000000000000000007C
:100A100000000000000000000000000000000000D6
:100A200000000000FA3B0120000000000000000070
:100A30000000000000000000000000007E4B0120CC
:100A400000000000000000000000000000000000A6
:100A500000000000000000005249012000000000DA
:100A60004E4C01208E4C01200000000000000000D0
:100A70001A4B0120944A01202A49012004490120EF
:100A80000000000000000000000000000000000066
:100A9000CE4C01202E4D0120B04A0120324B0120C6
:100AA000104E0120604E01201E4F01200100000069
:100AB00020000000001BB70000366E01010000009E
:100AC0001F000000030000003F00000001000000C4
:100AD0002000000000366E01006CDC020300000004
:100AE0001F000000020000003F00000001000000A5
:100AF00010000000808D5B00001BB70000000000AC
:100B00001F000000030000003F0000000100000083
:100B100010000000001BB70000366E01010000004D
:100B20001F000000020000003F0000000100000064
:100B30001000000000366E01006CDC0203000000B3
:100B40001F000000020000001F0000000100000064
:100B500008000000808D5B00001BB7000000000053
:100B60001F000000030000001F0000000100000043
:100B700008000000001BB70000366E0101000000F5
:100B80001F000000020000001F0000000100000024
:100B90000800000000366E01006CDC02030000005B
:100BA0001F000000020000000F0000000100000014
:100BB00004000000808D5B00001BB70000000000F7
:100BC0001F000000030000000F00000001000000F3
:100BD00004000000001BB70000366E010100000099
:100BE0001F000000020000000F00000001000000D4
:100BF0000400000000366E01006CDC0203000000FF
:100C00001F000000020000000700000001000000BB
:100C100002000000808D5B00001BB7000000000098
:100C20001F000000020000000F0000000100000093
:100C300002000000001BB70000366E01010000003A
:100C40001F000000010000000F0000000100000074
:100C50000200000000366E01006CDC0203000000A0
:100C60001F0000000100000007000000020000005B
:100C700001000000808D5B00001BB7000000000039
:100C80001F0000000100000007000000020000003B
:100C900001000000001BB70000366E0101000000DB
:100CA0001F0000000100000003000000020000001F
:100CB0000100000000366E01006CDC020300000041
:100CC0001F00000003000000FFFFFFFF0400000002
:100CD00001000000808D5B00001BB70000000000D9
:100CE0001F000000030000000000000004000000DE
:100CF00001000000001BB70000366E01010000007B
:100D00001F00000003000000FFFFFFFF04000000C1
:100D10000100000000366E01006CDC0203000000E0
:100D20001F00000002000000FFFFFFFF06000000A0
:100D300001000000808D5B00AAC2A200000000003C
:100D40002300000001000000020000000600000077
:100D500001000000AAC2A200001BB70000000000B2
:100D60001700000003000000FFFFFFFF0600000067
:100D700001000000001BB7000024F4000100000087
:100D80002F00000003000000FFFFFFFF060000002F
:100D9000010000000024F40080A8120101000000FE
:100DA0001700000002000000FFFFFFFF0600000028
:100DB0000100000080A812015585450102000000D5
:100DC0002300000002000000FFFFFFFF08000000FA
:100DD00001000000808D5B00001BB70000000000D8
:100DE0001F00000003000000FFFFFFFF08000000DD
:100DF00001000000001BB70000366E01010000007A
:100E00001F00000002000000FFFFFFFF08000000BD
:100E10000100000000366E01006CDC0203000000DF
:100E20001F00000001000000FFFFFFFF0A0000009C
:100E300001000000808D5B00007C9200000000003B
:100E40002700000003000000FFFFFFFF0A00000072
:100E500001000000007C9200001BB70000000000B1
:100E60001300000002000000FFFFFFFF0A00000067
:100E700001000000001BB70000F824010100000081
:100E80002700000002000000FFFFFFFF0A00000033
:100E90000100000000F8240100366E01010000008E
:100EA0001300000001000000FFFFFFFF0A00000028
:100EB0000100000000366E0100F04902030000004E
:100EC0002700000001000000FFFFFFFF0C000000F2
:100ED00001000000808D5B0000127A00000000001D
:100EE0002F00000003000000FFFFFFFF0C000000C8
:100EF0000100000000127A00001BB7000000000093
:100F00001700000002000000FFFFFFFF0C000000C0
:100F100001000000001BB7000024F40001000000E5
:100F20002F00000002000000FFFFFFFF0C00000088
:100F3000010000000024F40000366E0101000000F2
:100F40001700000001000000FFFFFFFF0C00000081
:100F50000100000000366E0180C3C90103000000DB
:100F60002F00000001000000FFFFFFFF0C00000049
:100F70000100000080C3C9010048E801030000002F
:100F80002F00000001000000FFFFFFFF0E00000027
:100F900001000000808D5B00B6A168000000000029
:100FA0003700000003000000FFFFFFFF0E000000FD
:100FB00001000000B7A16800001BB700000000009E
:100FC0001B00000002000000FFFFFFFF0E000000FA
:100FD00001000000001BB7006D43D10001000000BC
:100FE0003700000002000000FFFFFFFF0E000000BE
:100FF000010000006E43D10000366E0101000000C8
:101000001B00000001000000FFFFFFFF0E000000BA
:101010000100000000366E01DB86A2010300000023
:101020003700000001000000FFFFFFFF100000007C
:1010300001000000808D5B00001BB7000000000075
:101040001F00000002000000FFFFFFFF1000000073
:1010500001000000001BB70000366E010100000017
:101060001F00000001000000FFFFFFFF1200000052
:1010700001000000808D5B00AAC2A20000000000F9
:101080002300000002000000FFFFFFFF120000002D
:1010900001000000ABC2A200001BB700000000006E
:1010A0001100000001000000FFFFFFFF1200000020
:1010B00001000000001BB70055854501010000003C
:1010C0002300000001000000FFFFFFFF14000000EC
:1010D00001000000808D5B00007C92000000000099
:1010E0002700000002000000FFFFFFFF14000000C7
:1010F00001000000007C9200001BB700000000000F
:101100001300000001000000FFFFFFFF14000000BB
:1011100001000000001BB70000F8240101000000DE
:101120002700000001000000FFFFFFFF1600000085
:1011300001000000808D5B00E82A850000000000AF
:101140002B00000002000000FFFFFFFF1600000060
:1011500001000000E92A8500001BB7000000000024
:101160001500000001000000FFFFFFFF1600000057
:1011700001000000001BB700D1550A01010000006A
:101180002B00000001000000FFFFFFFF180000001F
:1011900001000000808D5B0000127A00000000005A
:1011A0002F00000002000000FFFFFFFF18000000FA
:1011B0000100000000127A00001BB70000000000D0
:1011C0001700000001000000FFFFFFFF18000000F3
:1011D00001000000001BB7000024F4000100000023
:1011E0002F00000001000000FFFFFFFF1A000000B9
:1011F00001000000808D5B0027AE70000000000041
:101200003300000002000000FFFFFFFF1A00000093
:101210000100000028AE7000001BB70000000000B5
:101220001900000001000000FFFFFFFF1A0000008E
:1012300001000000001BB7006658E100010000003B
:101240003300000001000000FFFFFFFF1C00000052
:1012500001000000808D5B00B6A168000000000066
:101260003700000002000000FFFFFFFF1C0000002D
:1012700001000000B7A16800001BB70000000000DB
:101280001B00000001000000FFFFFFFF1C0000002A
:1012900001000000001BB7006D43D10001000000F9
:1012A0003700000001000000FFFFFFFF1E000000EC
:1012B00001000000808D5B0000A8610000000000BC
:1012C0003B00000002000000FFFFFFFF1E000000C7
:1012D0000100000000A86100001BB7000000000032
:1012E0001D00000001000000FFFFFFFF1E000000C6
:1012F00001000000001BB7000050C3000100000007
:101300003B00000001000000FFFFFFFF2000000085
:1013100001000000808D5B00001BB7000000000092
:101320001F00000001000000FFFFFFFF4C4430677A
:101330007265656E000000004C4430626C7565009B
:101340004C443072656400000A520120445101206F
:101350007C510120AC510120DC510120945301202B
:10136000B2530120C2530120BC530120E453012099
:10137000CA530120DE530120D25301201054012012
:10138000205401201A5401204254012028540120E5
:101390003C54012030540120725201205A52012045
:1013A0008E520120A2520120B6520120D2520120B9
:1013B000EA520120025301201E530120365301201E
:1013C0005453012070530120EA5301204A54012054
:1013D00060540120F6570120B25601203E560120EC
:1013E000D8560120F856012082570120A05501202F
:1013F000C6550120EA55012000560120145601204F
:101400002A5601204E5601206E560120805601209A
:10141000A05601201C140120000000006C696267C6
:081420006C6F73730000000003
:101480005D71A2C4B7050120370401209385C56AA8
:101490001305046B86C6CAC04EDEA6C252DC56DAFD
:1014A0005AD85ED6EF20C02AB7050120AA899385B5
:1014B000456B1305046BEF20A029B70501202A898D
:1014C0009385C56B1305046BEF20802863860900A4
:1014D00063040900AA841DE1370501201305456C4A
:1014E000EF00F0590545B640264496440649F259A6
:1014F000625AD25A425BB25B616182804E85EF20B4
:10150000A0234A85EF2040232685EF20E0224E8548
:10151000EF2080234A85EF2020232685EF20C0225C
:10152000EF20201FEF20201E23A0A19009E93705FE
:1015300001201305456EEF00905409456DB7EF206B
:10154000001C23A4A19009E9370501201305056FAC
:10155000EF00F0520D4541BFEF20001C0122B705FE
:1015600001204146938505310A85EF00303302C8DA
:1015700002CA02CC02CEAD2CAA8A2E8B930B803EDF
:101580000C080A85FD1BB52CE39C0BFE9524AA874D
:1015900033055541B3B7A700B38565411306803EB7
:1015A00081469D8DEF10D05DAA853705012013057A
:1015B0004571EF00103003A50190EF20401323A2E6
:1015C000A19009E93705012013054572EF00304B62
:1015D000114511BFEF20401403A50190EF20A01189
:1015E000AA8523A8A19083A6019003A54190371650
:1015F000012013060664EF20A0122A84635B050015
:10160000370501201305C574EF007047330580408E
:10161000D9BD03A581908145EF200011FD57631AC4
:10162000F5003705012013058577EF005045194572
:101630005DBD4E858D224A85B92A2685A92AD5BF4A
:1016400083A5019103A54190411106C6EF20400EEC
:10165000B240054723A6E19041018280411129450E
:1016600006C6EF0050292945EF00F0283705012074
:1016700013050532EF00B0402945EF00D0273705AC
:10168000012013050534EF00903F370501201305B5
:101690008536EF00D03E3705012013050539EF00F0
:1016A000103E370501201305853BEF00503D3705FF
:1016B00001201305053EEF00903C3705012013057E
:1016C000C540EF00D03B3705012013058543EF00EF
:1016D000103B3705012013054546EF00503A37050A
:1016E000012013050549EF00903937050120130546
:1016F000054CEF00D038370501201305054FEF00EA
:1017000010383705012013050552EF005037370513
:1017100001201305C554EF0090363705012013054D
:101720008557EF00D035370501201305055AEF0026
:101730001035370501201305855CEF00503437055F
:1017400001201305C55EEF00903337050120130516
:101750000561EF00D0323705012013050563EF0066
:1017600010323705012013050565EF0050313705AC
:1017700001201305C566EF0090302945EF00B01732
:101780002945EF005017B240370501201305856841
:1017900041016F00D02E411122C406C626C24AC0A4
:1017A00023A601902A89EF10B07983A401902685A1
:1017B000EF10F072A167AA9733B5A7003306B50002
:1017C000BE852685EF10307283A5019103A5419057
:1017D000EF10907583A7C190F5DF23A601902244F6
:1017E000B24092444A85024941016F10F0750000F1
:1017F000F32500B8732500B0732600B8E39AC5FE40
:1018000082800329050083294500032A8500832A55
:10181000C50017E6FE5F1306E67E032B0600832B4A
:101820004600032C8600832CC600032D0601832D61
:101830004601334E6901B3CE3B0133CF4C01B3CAED
:101840005D01B309DE01939F990093D97901B3E952
:10185000F901B3CE8E01338AEE01935F5A006E0A0E
:10186000336AFA01334FAF01FA9A93DF3A00F60A6E
:10187000B3EAFA01032B8601832BC601032C06026F
:10188000832C4602032D8602832DC60233CE6901C6
:10189000B3CE4B0133CF5C0133C92D01330ADE01D6
:1018A000931F9A00135A7A01336AFA01B3CE8E015C
:1018B000B38AEE0193DF5A00EE0AB3EAFA01334F1E
:1018C000AF017A99935F390076093369F901032BE7
:1018D0000603832B4603032C8603832CC603032DA8
:1018E0000604832D4604334E6A01B3CE5B0133CF29
:1018F0002C01B3C93D01B30ADE01939F9A0093DA2C
:101900007A01B3EAFA01B3CE8E013389EE01935F17
:1019100059006E093369F901334FAF01FA9993DF2A
:101920003900F609B3E9F901032B8604832BC604B9
:10193000032C0605832C4605032D8605832DC6053D
:1019400033CE6A01B3CE2B0133CF3C0133CA4D01F4
:101950003309DE01931F9900135979013369F901A5
:10196000B3CE8E01B389EE0193DF5900EE09B3E9DE
:10197000F901334FAF017A9A935F3A00760A336ADE
:10198000FA01032B0606832B4606032C8606832CBE
:10199000C606032D0607832D4607334E6901B3CED5
:1019A0003B0133CF4C01B3CA5D01B309DE01939F04
:1019B000990093D97901B3E9F901B3CE8E01338A45
:1019C000EE01935F5A006E0A336AFA01334FAF019A
:1019D000FA9A93DF3A00F60AB3EAFA01032B860774
:1019E000832BC607032C0608832C4608032D860884
:1019F000832DC60833CE6901B3CE4B0133CF5C01D2
:101A000033C92D01330ADE01931F9A00135A7A015C
:101A1000336AFA01B3CE8E01B38AEE0193DF5A0026
:101A2000EE0AB3EAFA01334FAF017A99935F3900B6
:101A300076093369F901032B0609832B4609032C28
:101A40008609832CC609032D060A832D460A334EC8
:101A50006A01B3CE5B0133CF2C01B3C93D01B30A98
:101A6000DE01939F9A0093DA7A01B3EAFA01B3CECA
:101A70008E013389EE01935F59006E093369F901D4
:101A8000334FAF01FA9993DF3900F609B3E9F90151
:101A9000032B860A832BC60A032C060B832C460BCA
:101AA000032D860B832DC60B33CE6A01B3CE2B01DB
:101AB00033CF3C0133CA4D013309DE01931F990036
:101AC000135979013369F901B3CE8E01B389EE015F
:101AD00093DF5900EE09B3E9F901334FAF017A9A68
:101AE000935F3A00760A336AFA01032B060C832BC4
:101AF000460C032C860C832CC60C032D060D832D5F
:101B0000460D334E6901B3CE3B0133CF4C01B3CA0E
:101B10005D01B309DE01939F990093D97901B3E97F
:101B2000F901B3CE8E01338AEE01935F5A006E0A3B
:101B3000336AFA01334FAF01FA9A93DF3A00F60A9B
:101B4000B3EAFA01032B860D832BC60D032C060E78
:101B5000832C460E032D860E832DC60E33CE6901CF
:101B6000B3CE4B0133CF5C0133C92D01330ADE0103
:101B7000931F9A00135A7A01336AFA01B3CE8E0189
:101B8000B38AEE0193DF5A00EE0AB3EAFA01334F4B
:101B9000AF017A99935F390076093369F901032B14
:101BA000060F832B460F032C860F832CC60F032DA5
:101BB0000610832D4610334E6A01B3CE5B0133CF3E
:101BC0002C01B3C93D01B30ADE01939F9A0093DA59
:101BD0007A01B3EAFA01B3CE8E013389EE01935F45
:101BE00059006E093369F901334FAF01FA9993DF58
:101BF0003900F609B3E9F901032B8610832BC610CF
:101C0000032C0611832C4611032D8611832DC6113A
:101C100033CE6A01B3CE2B0133CF3C0133CA4D0121
:101C20003309DE01931F9900135979013369F901D2
:101C3000B3CE8E01B389EE0193DF5900EE09B3E90B
:101C4000F901334FAF017A9A935F3A00760A336A0B
:101C5000FA01032B0612832B4612032C8612832CC7
:101C6000C612032D0613832D4613334E6901B3CEDE
:101C70003B0133CF4C01B3CA5D01B309DE01939F31
:101C8000990093D97901B3E9F901B3CE8E01338A72
:101C9000EE01935F5A006E0A336AFA01334FAF01C7
:101CA000FA9A93DF3A00F60AB3EAFA01032B861395
:101CB000832BC613032C0614832C4614032D861481
:101CC000832DC61433CE6901B3CE4B0133CF5C01F3
:101CD00033C92D01330ADE01931F9A00135A7A018A
:101CE000336AFA01B3CE8E01B38AEE0193DF5A0054
:101CF000EE0AB3EAFA01334FAF017A99935F3900E4
:101D000076093369F901032B0615832B4615032C3D
:101D10008615832CC615032D0616832D4616334EC5
:101D20006A01B3CE5B0133CF2C01B3C93D01B30AC5
:101D3000DE01939F9A0093DA7A01B3EAFA01B3CEF7
:101D40008E013389EE01935F59006E093369F90101
:101D5000334FAF01FA9993DF3900F609B3E9F9017E
:101D6000032B8616832BC616032C0617832C4617C7
:101D7000032D8617832DC61733CE6A01B3CE2B01F0
:101D800033CF3C0133CA4D013309DE01931F990063
:101D9000135979013369F901B3CE8E01B389EE018C
:101DA00093DF5900EE09B3E9F901334FAF017A9A95
:101DB000935F3A00760A336AFA01032B0618832BE5
:101DC0004618032C8618832CC618032D0619832D5C
:101DD0004619334E6901B3CE3B0133CF4C01B3CA30
:101DE0005D01B309DE01939F990093D97901B3E9AD
:101DF000F901B3CE8E01338AEE01935F5A006E0A69
:101E0000336AFA01334FAF01FA9A93DF3A00F60AC8
:101E1000B3EAFA01032B8619832BC619032C061A81
:101E2000832C461A032D861A832DC61A33CE6901D8
:101E3000B3CE4B0133CF5C0133C92D01330ADE0130
:101E4000931F9A00135A7A01336AFA01B3CE8E01B6
:101E5000B38AEE0193DF5A00EE0AB3EAFA01334F78
:101E6000AF017A99935F390076093369F901032B41
:101E7000061B832B461B032C861B832CC61B032DA2
:101E8000061C832D461C334E6A01B3CE5B0133CF53
:101E90002C01B3C93D01B30ADE01939F9A0093DA86
:101EA0007A01B3EAFA01B3CE8E013389EE01935F72
:101EB00059006E093369F901334FAF01FA9993DF85
:101EC0003900F609B3E9F901032B861C832BC61CE4
:101ED000032C061D832C461D032D861D832DC61D38
:101EE00033CE6A01B3CE2B0133CF3C0133CA4D014F
:101EF0003309DE01931F9900135979013369F90100
:101F0000B3CE8E01B389EE0193DF5900EE09B3E938
:101F1000F901334FAF017A9A935F3A00760A336A38
:101F2000FA01032B061E832B461E032C861E832CD0
:101F3000C61E032D061F832D461F334E6901B3CEE7
:101F40003B0133CF4C01B3CA5D01B309DE01939F5E
:101F5000990093D97901B3E9F901B3CE8E01338A9F
:101F6000EE01935F5A006E0A336AFA01334FAF01F4
:101F7000FA9A93DF3A00F60AB3EAFA01032B861FB6
:101F8000832BC61F032C0620832C4620032D86207E
:101F9000832DC62033CE6901B3CE4B0133CF5C0114
:101FA00033C92D01330ADE01931F9A00135A7A01B7
:101FB000336AFA01B3CE8E01B38AEE0193DF5A0081
:101FC000EE0AB3EAFA01334FAF017A99935F390011
:101FD00076093369F901032B0621832B4621032C53
:101FE0008621832CC621032D0622832D4622334EC3
:101FF0006A01B3CE5B0133CF2C01B3C93D01B30AF3
:10200000DE01939F9A0093DA7A01B3EAFA01B3CE24
:102010008E013389EE01935F59006E093369F9012E
:10202000334FAF01FA9993DF3900F609B3E9F901AB
:10203000032B8622832BC622032C0623832C4623C4
:10204000032D8623832DC62333CE6A01B3CE2B0105
:1020500033CF3C0133CA4D013309DE01931F990090
:10206000135979013369F901B3CE8E01B389EE01B9
:1020700093DF5900EE09B3E9F901334FAF017A9AC2
:10208000935F3A00760A336AFA0123A0250123A25E
:10209000350123A4450123A6550182802A8309CA5C
:1020A00083830500230073007D16050385056DFA03
:1020B000828039713EDA2ED232D436D63AD842DC1A
:1020C00046DE97F7FE5F938767C222CC804326CA1D
:1020D00006CEAA8409C41C4C99E32285D5230C445E
:1020E00054102686228536C6EF007024F2406244E2
:1020F000D24421618280011197F7FE5F938707BF69
:1021000022CC804306CEAA8519C41C4C89E72AC676
:1021100022857D23B245104422856244F240056148
:1021200009A0011122CC06CE2A8401C91C4D91E7D9
:1021300032C62EC471233246A24597E7FFFF93872C
:10214000A7676315F60250401C46FD171CC663DFE7
:102150000702184E63C7E70093F7F50F2947639707
:10216000E70222856244F24005610DA297E7FFFF76
:10217000938787666314F6001044F9B797E7FFFF6B
:1021800093878761E312F6FC50447DBF1C4213F530
:10219000F50F1387170018C22380B700F24062447E
:1021A00005618280011126CA4AC806CE22CC4EC6DD
:1021B00052C4AA842E8901C51C4D91E311239C4C65
:1021C000804499E32685ED2997E7FFFF9387C75E53
:1021D000631CF402C0408357C400A18BB1C71C48E4
:1021E000A1C7FD59294A1C4483450900FD17B1E9DF
:1021F0001CC463DE07062286A94526854128FD57B3
:102200006308F502294535A097E7FFFF9387C75C70
:102210006314F4008044C1B797E7FFFF9387C75763
:10222000E31BF4FAC04445BFA2852685052255D993
:102230007D55F2406244D2444249B249224A056186
:1022400082801CC4050963D70700184C63CBE700E4
:10225000638945011C401387170018C02380B7000D
:1022600059B7228626851D20E31F35F7D1B71C40BC
:102270001387170018C029472380E70061B797F735
:10228000FE5F9387A7A6AA85884329BF011122CCA8
:1022900026CA4AC806CE4EC6AA842E89328401C5F3
:1022A0001C4D91E3312997E7FFFF9387E7506319AE
:1022B000F406C0401C4C1CC48357C400A18BC9C386
:1022C0001C48BDCF1C4808409379F90F1379F90FCA
:1022D0001D8D5C486346F500A2852685E9242DE521
:1022E0001C440505FD171CC41C401387170018C0AB
:1022F000238037015C486389A7008357C400858B1E
:1023000081CBA9476316F900A2852685692C0DEDBE
:10231000F24062444A85D2444249B2490561828012
:1023200097E7FFFF9387474B6314F400804459B746
:1023300097E7FFFF93874746E31EF4F6C0449DBF2F
:10234000A285268521203DDD7D59D9B7411197F71A
:10235000FE5F9387A79926C2844322C44AC006C65B
:102360002A892E8489C49C4C99E32685912E97E76F
:10237000FFFF93876744631CF402C0400317C40047
:1023800093170701C18393F68700B5EE93F6070113
:102390009DEEA5472320F900136707042316E400E8
:1023A0007D55B2402244924402494101828097E720
:1023B000FFFF938767426314F4008044C1B797E737
:1023C000FFFF9387673DE31BF4FAC04445BF918B41
:1023D0008DC74C5889C9930744046384F5004A8526
:1023E000A12B232A04028357C4002322040093F75D
:1023F000B7FD2316F4001C481CC08357C40093E7A4
:1024000087002316F4001C4881EF8357C40013078C
:10241000002093F707286385E700A2854A85BD2140
:102420008357C40013F7170005C75C482324040032
:10243000B307F0401CCC1C480145A5F78317C40026
:1024400013F7070839DF93E707042316F40089BF61
:10245000898B014791E3584818C4F1BF83D7C50061
:10246000011122CC26CA06CE4AC84EC613F78700F1
:10247000AA842E8465E7D8416347E000B8416344ED
:10248000E0000145C1A058546DDF03A904009396F4
:10249000370123A0040063DE060668488357C400A2
:1024A000918B99C75C401D8D5C5899C33C401D8D34
:1024B0005C540C502A86814626858297FD57035727
:1024C000C400631DF5009440F54763E4D708B707DF
:1024D00040208507B3D7D700858BA5CF1C48232282
:1024E00004001CC09317370163D80700FD5763141D
:1024F000F5009C4091E368C84C5823A02401D1D139
:10250000930744046384F50026853D21232A0402B1
:102510008DBF0C508546014626850297FD57E31F67
:10252000F5F69C40A5DF75476385E700594763953D
:10253000E70023A02401B1B78357C40093E7070441
:102540002316F400F2406244D2444249B249056184
:102550008280136707042316E400EDB783A9050101
:10256000E38109F203A905008D8B23A0350133090E
:102570003941014791E3D84918C4E35420F11C5470
:102580000C50CA864E8626858297634AA0008357E0
:10259000C4007D5593E707042316F40065B7AA9994
:1025A0003309A940D9BF9C49B9CF011122CC06CE2D
:1025B0002A8411C51C4D81E72EC61922B24597E722
:1025C000FFFF9387671F639BF5004C408397C5000F
:1025D00095C722856244F240056149B597E7FFFF40
:1025E0009387871F6394F5000C44CDB797E7FFFFEF
:1025F0009387871AE39CF5FC4C44C9BFF2406244C0
:1026000001450561828001458280411122C406C6D0
:102610002A842316B5002317C50023200500232292
:102620000500232405002322050623280500232A6C
:102630000500232C0500214681451305C505ED2421
:10264000970700009387077B5CD09707000093876C
:10265000677D1CD4971700009387A7815CD49717D8
:1026600000009387678400D01CD8B2402244410107
:10267000828097050000938545F3B9A2411126C2D7
:10268000130680069384F5FFB384C4024AC02E89E2
:1026900022C406C693854407B1262A8419C923207B
:1026A000050023222501310508C4138684068145CF
:1026B000A52C2285B24022449244024941018280E5
:1026C0001C4DBDE3411106C622C497070000938745
:1026D00087FA1CD597E7FE5F938787619C43232485
:1026E000050423260504232805046314F500854703
:1026F0001CCD2A841D2848C02285052808C42285AF
:102700002D2048C4484001469145013708440546FC
:10271000A545E53D48440946C945C53D85471CCC0E
:10272000B2402244410182808280411197E7FE5FDE
:102730009387075C26C284434AC006C69C4C22C4C9
:102740002A8999E32685AD3F938484048044DC4044
:10275000FD1763D607009C40B1CF8440C5BF031767
:10276000C40031E7C1778507232204062320040033
:1027700023220400232404005CC423280400232A09
:102780000400232C0400214681451305C405692A51
:10279000232A0402232C04022324040423260404F1
:1027A0002285B240224492440249410182801304AE
:1027B000840679BF91454A85D13588C02A8451FD68
:1027C000B1472320F900E9BF797122D44AD052CC15
:1027D00056CA5AC85EC606D626D24ECE2A8AAE8AB7
:1027E000130485040149054BFD5B09ECB2502254EA
:1027F0004A8592540259F249624AD24A424BB24B3C
:1028000045618280044483294400FD1963D4090092
:102810000040E1BF83D7C400637BFB008397E400E3
:1028200063877701A6855285829A3369A9009384CC
:102830008406E1BF1971A6DAAE848395E500A2DCB7
:1028400086DE328463DC050083D7C40023A0060043
:1028500093F707089DE39307004015A0300836C69C
:102860004D25B246E34205FE7247BD67F98F797781
:10287000BA9793B717009CC2F9BF930700041CC016
:10288000F6506654D65401450961828083D7C5004D
:10289000011122CC06CE26CA4AC8898B2E8489CF44
:1028A000930774041CC01CC885475CC8F24062448E
:1028B000D24442490561828074003000AA849D3F61
:1028C000A2452A892685392A01ED8317C40013F70A
:1028D000072069FFF19B93E727002316F400C9B78F
:1028E00097070000938727D99CD48357C40008C05A
:1028F00008C893E707082316F400A2475CC8B2474C
:1029000089CF8315E40026851D2501C98357C4009E
:10291000F19B93E717002316F4008357C400336933
:10292000F9002316240159B72A8311C62300B300E6
:102930007D16050365FE8280CDC583A7C5FF4111C5
:1029400022C406C626C21384C5FF63D307003E9483
:10295000AA84B92597E7FE5F9387473F9C4389EF99
:102960002322040097E7FE5F23A2873E2244B24061
:1029700026859244410135A5637EF4001440330757
:10298000D4006396E7009843DC43369718C05CC0D8
:10299000D1BFBA87D84319C3E37DE4FE944333869D
:1029A000D700631F86001040B29694C33386D700C9
:1029B000E31EC7FA10435843B29694C3D8C37DB7F9
:1029C0006375C400B1479CC055B71040B306C4003E
:1029D0006316D70014435843B29614C058C0C0C3FE
:1029E00071B78280011126CA93843500F19806CE12
:1029F00022CC4AC84EC6A104B14763F7F404B144DF
:102A000063E6B4042A89692B97E7FE5F938707344E
:102A100098433A8431E497E7FE5F938767339C439A
:102A200081EB81454A85452697E7FE5F23A2A732C1
:102A3000A6854A85492EFD5963193507B1472320DC
:102A4000F9004A85B92B29A0E3DC04FAB1471CC17F
:102A50000145F2406244D2444249B2490561828054
:102A60001C40858F63C00704AD4663F6F6001CC0AA
:102A70003E9404C001A85C406314870217E7FE5F20
:102A80002326F72C4A85312B1305B4009307440005
:102A900061993307F54055DF3A94898F1CC055BFC3
:102AA0005CC3CDB722874040B5B713043500719899
:102AB000E30185FCB305A4404A853126E31B35FBC1
:102AC000B5BF1C46FD171CC663DA0700184E63C568
:102AD000E700A9476394F5006FF04FFB1C422E8579
:102AE0001387170018C22380B7008280011122CCFF
:102AF00026CA4AC84EC652C406CE2A89AE89328436
:102B0000B304D6007D5A63149400014509A8834597
:102B100004004E864A8575370504E31645FFF240EA
:102B20006244D2444249B249224A056182803571E9
:102B300022CD26CB4AC94EC706CF52C556C35AC16D
:102B4000DEDEE2DCE6DAAA89AE843289368401C5AB
:102B50001C4D91E3B53697E7FFFF9387E7C5639B6D
:102B6000F40C83A4490083D7C400A18BF5C79C480B
:102B7000E5C793070002A304F1029307000302D202
:102B80002305F10222C6930B500297EAFFFF938AB6
:102B9000AAC6054C294B4A848347040099C3639015
:102BA000770FB30C2441638D0C00E6864A86A68518
:102BB0004E852D3FFD576306F51E9256E69636D29A
:102BC00083470400638F071CFD571309140002C8D4
:102BD00002CE3ECA02CCA309010482D48345090077
:102BE000154656854D2613041900C24759E913F7B7
:102BF000070109C713070002A309E10413F78700BF
:102C000009C71307B002A309E104834609001307AB
:102C1000A0026380E608F2474A84814625460347BE
:102C2000040093051400130707FD6379E60AB5CA8B
:102C30003ECE85A897E7FFFF938707BA6395F40018
:102C400083A489000DB797E7FFFF9387E7B4E39C60
:102C5000F4F083A4C90001BFA6854E85EFF00FEF05
:102C600009D97D55FA406A44DA444A49BA492A4AA0
:102C70009A4A0A4BF65B665CD65C0D61828005045D
:102C800021BF330555413315AC00C98F3EC8228999
:102C9000B1B7324793064700184336C66349070267
:102CA0003ACE034704009307E002631FF70403478B
:102CB00014009307A002631BF702B24709041387AD
:102CC00047009C433AC663C107023ECA35A8330792
:102CD000E04093E727003ACE3EC8E1B7B3876703E9
:102CE00085462E84BA9725BFFD57C5B7050402CA8D
:102CF00081468147254603470400930514001307C6
:102D000007FD6376E606F1F2834504000D4617E5FC
:102D1000FFFF1305E5AE852C11CD97E7FFFF9387E5
:102D200027AE1D8D93070004B397A7004245050405
:102D30005D8D2AC883450400194617E5FFFF13057A
:102D400065AC130914002304B102352C3DC197D79B
:102D5000FEDF9387272B95E74247B247137707108B
:102D600009CF91073EC69257D2973ED22DB5B38771
:102D7000670385462E84BA97BDBF9D07E19BA107D7
:102D8000D5B7780097060000938686D626860C086D
:102D90004E8597000000E7000000FD572A8AE314E3
:102DA000F5FC83D7C40093F70704E39C07EA1255A8
:102DB00055BD780097060000938686D326860C08BA
:102DC0004E85FD24D9BF411122C42A842E8523AA11
:102DD000019006C6EF20D051FD576317F500938789
:102DE00041919C4391C31CC0B24022444101828066
:102DF000411122C42E848395E50006C6992B6349B0
:102E000005007C48AA977CC8B240224441018280D8
:102E10008357C4007D777D17F98F2316F400EDB733
:102E200083D7C500011122CC26CA4AC84EC606CE99
:102E300093F70710AA842E843289B68991C78395A7
:102E4000E50089460146092A8357C4007D777D172E
:102E5000F98F2316F4008315E4006244F240CE8615
:102E60004A86B24942492685D24405613DA84111AE
:102E700022C42E848395E50006C6F928FD57035722
:102E8000C400631BF500FD77FD17F98F2316F400CE
:102E9000B2402244410182808567D98F2316F40015
:102EA00068C8FDB78395E50005A8411122C42A84AE
:102EB0002E85B285368623AA019006C6EF2090455E
:102EC000FD576317F500938741919C4391C31CC044
:102ED000B240224441018280411122C42A842E85BD
:102EE00023AA019006C6EF20303BFD576317F5007B
:102EF000938741919C4391C31CC0B240224441013D
:102F00008280411122C42A842E85B28523AA019091
:102F100006C6EF20B039FD576317F500938741913E
:102F20009C4391C31CC0B2402244410182804111A4
:102F300022C42A842E8523AA019006C6EF20503889
:102F4000FD576317F500938741919C4391C31CC0C3
:102F5000B240224441018280411122C42A842E853C
:102F6000B285368623AA019006C6EF20F035FD57BC
:102F70006317F500938741919C4391C31CC0B240F5
:102F800022444101828093F5F50F2A966314C5000F
:102F90000145828083470500E38DB7FE0505FDB737
:102FA00082808280797156CA9C49BA8A984522D417
:102FB00026D24ECE52CC06D64AD05AC85EC6AA8970
:102FC0002E84B284368A63D3E700BA879CC0034755
:102FD000340419C385079CC01C4093F7070281C7BE
:102FE0009C4089079CC00329040013796900631A77
:102FF0000900130B9401FD5B5C449840998F634C6E
:10300000F9041C408346340493F70702B336D0001A
:10301000A5EB13063404D2854E85829AFD576303CF
:10302000F5041C4011469840998B544481446397A1
:10303000C700B384E64063D3040081441C441848AD
:103040006354F700998FBE94014969047D5B6398CE
:103050002405014509A885465A86D2854E85829A5F
:10306000631E75017D55B250225492540259F249A3
:10307000624AD24A424BB24B456182800509ADBFDC
:103080003307D40013060003A301C7040347540405
:1030900093871600A2978906A381E7049DBF854602
:1030A0002286D2854E85829AE30E65FB050945B7D7
:1030B000797122D426D24AD04ECE06D652CC56CAE8
:1030C0005AC8B68983C685019307E0063289AA8467
:1030D0002E84138635046380F61E63E2D7069307B9
:1030E00030066382F60A63EDD700638A061E9307F3
:1030F00080056386F616930A24042301D40469A884
:10310000930740066386F60093079006E395F6FE64
:103110001C40084393F6070893054500C1C21C41B3
:103120000CC363D807001307D002B307F040A30114
:10313000E40497D6FFFF9386666D294765A0930741
:1031400030076382F61A63EFD7009307F006638FA8
:10315000F60493070007E390F6FA9C4193E7070211
:103160009CC109A8930750076382F6049307800760
:10317000E393F6F893078007A302F40497D6FFFFC2
:103180009386066ADDA01C43938A25049386470034
:103190009C4314C32381F5048547ADA293F607042D
:1031A0001C410CC3BDDEC207C187A5BF0C401C4338
:1031B00013F80508138547006305080008C39C43FE
:1031C00039A093F5050408C3FDD983D70700130779
:1031D000F006638AE60C97D6FFFF9386266329479D
:1031E000A30104044C400CC463C5050008406D995C
:1031F00008C099E3B28A91CDB28AB3F5E702FD1A0D
:10320000B69583C505002380BA00B3D5E70263F203
:10321000E70AA147631EF7001C40858B91CB5840FD
:103220001C4863C7E70093070003A38FFAFEFD1A4B
:103230003306564110C84E87CA867000A28526857F
:1032400095337D5A6314450D7D55B25022549254E6
:103250000259F249624AD24A424B45618280A382B6
:10326000D50497D6FFFF9386665A0C40084313F89F
:1032700005081C4111056300080208C313F7150077
:1032800001C793E505020CC04147B9FB0C4093F51B
:10329000F5FD0CC0B1B713F8050408C3E30008FE40
:1032A000C207C183E1BF97D6FFFF93862656214709
:1032B00005BFAE8799B794411C43CC4913F8060863
:1032C000138547006306080008C39C438CC301A80C
:1032D00008C393F606049C43F5DA2390B70023282D
:1032E0000400B28A89BF1C43D041814593864700C0
:1032F00014C383AA07005685793101C533055541AA
:1033000048C05C401CC8A301040435B71448568665
:10331000CA8526858299E30945F31C40898B8DE790
:10332000B2474844E353F5F23E8505B785465686D5
:10333000CA8526858299E30965F1050A5C4432470E
:10334000998FE345FAFEE9BF014A930A94017D5B38
:10335000F5B7411122C42A842E85B285368623AA68
:10336000019006C6EF208077FD576317F50093871D
:1033700041919C4391C31CC0B240224441018280D0
:10338000AE87328836872A836396062097D8FFFF58
:103390009388484A63FEC50A41676374E60A1307C7
:1033A000F00F3337C7000E07B356E600B69883C652
:1033B0000800369793060002998E99CAB397D700F2
:1033C0003357E5003318D600B365F7003313D50043
:1033D0001355080133F7A5021316080141829356CD
:1033E0000301B3D5A5024207D98EB307B6022E87D3
:1033F00063FCF600C2961387F5FF63E7060163F5E9
:10340000F6001387E5FFC2969D8EB3F7A60242032E
:1034100013530301B3D6A602C20733E36700B30513
:10342000D6023685637BB30042931385F6FF63664D
:1034300003016374B3001385E6FF4207498F81459A
:103440004DA8B70600014147E360D6F66147A9BF22
:1034500001E6854633D8C602C166637ED808930666
:10346000F00F63F306012147B356E800B69883C610
:103470000800BA9613070002158F49E7B387074182
:103480008545135608019318080193D808019356EF
:10349000030133F7C702B3D7C7024207D98E33857A
:1034A000F8023E8763FCA600C2961387F7FF63E726
:1034B000060163F5A6001387E7FFC296898EB3F76E
:1034C000C602420313530301B3D6C602C20733E355
:1034D0006700B388D8023685637B13014293138556
:1034E000F6FF63660301637413011385E6FF420769
:1034F000498F3A858280B70600014147E366D8F6D6
:1035000061479DB73318E800B3D5D7003313E50002
:10351000B356D50013550801B397E70033F7A5025A
:10352000B3E8F60093170801C18313D60801B3D599
:10353000A5024207518FB386B7022E86637CD7005F
:1035400042971386F5FF636707016375D7001386FB
:10355000E5FF4297B306D74033F7A602C20893D8D7
:103560000801B3D6A6024207B385D702B367170195
:10357000368763FCB700C2971387F6FF63E707013E
:1035800063F5B7001387E6FFC2978D8F9315060189
:10359000D98DC5BD63E2D514416763FEE602130809
:1035A000F00F3337D8000E0733D8E60097D5FFFF6A
:1035B00093854528C29503C80500930500023A98F3
:1035C000B385054185E10547E3E5F6F23335C500EE
:1035D0001347150039BFB70500014147E3E6B6FCC4
:1035E0006147D9B733570601B396B600D98E93DE3B
:1035F000060133D70701B378D703B397B700335821
:1036000005013363F80093970601C1831358030142
:103610003316B6003357D703C20833E80801338F97
:10362000E7023A8E637CE8013698130EF7FF636772
:10363000D8006375E801130EE7FF36983308E841B8
:10364000B378D8033358D803C208B38E070393174F
:103650000301C183B3E7F800428763FCD701B69743
:103660001307F8FF63E7D70063F5D7011307E8FFF7
:10367000B697420EB387D741C16E3367EE00138809
:10368000FEFF337307019358070133780601418227
:10369000330E03033388080393560E013303C3022A
:1036A00042939A96B388C80263F30601F69813D63C
:1036B0000601B29863E01703E39317D9C167FD17BA
:1036C000FD8EC206337EFE003315B500F2968145AD
:1036D000E371D5E27D17A5B38145014719BD1C41B2
:1036E00003A3870002831C4103A3C70002831C417C
:1036F00003A3070102831C4103A3470102831C416A
:1037000003A3C702028301E503A5818082800145EE
:103710008280732540F182801C4103A3070002834D
:103720001C4103A3C70102831C4103A34702028378
:103730001C4103A3870202831C4103A347000283A9
:103740001C4103A3870002831C4103A3C70002831B
:10375000197186DEA2DCA6DACAD81DC995C92E84E5
:10376000AA856800EF204050A285370400806800D9
:103770001304042AEF20C04B1309C40004406C005A
:103780009C4026859C43829709E51104E31824FF99
:103790008144F650665426854659D6540961828084
:1037A000B7170080938747CF370700026383A700CE
:1037B00001478E05BA95116793074700AE977D556F
:1037C00088C3BA9590C194C3014582807D5582809B
:1037D0006F003079411106C6732540F12D37B24094
:1037E000410131BF011106CE2EC6ED3719C9B245D0
:1037F00005476368B7001C41F24003A34700056119
:103800000283F2407D55056182800111B717008067
:103810004AC806CE22CC26CA4EC6938747CF014956
:103820006313F5000949444181E82A84B7090080FF
:10383000639B240185475CC0F2406244D244424904
:10384000B249056182808D4591C09D4583A70930AD
:10385000A2860146DC4F1385093085048297C9BFD3
:10386000A9C5011122CC2EC606CE2A84A537B717CA
:103870000080938747CFB2456314F402B7070080F6
:1038800093870730631EF50093F7B5FF8D46639964
:10389000D7001C416244F24003A387020561028302
:1038A000F24062447D55056182807D558280A9C5C4
:1038B000011122CC2EC606CE2A84293FB7170080DC
:1038C000938747CFB2456314F402B707008093870C
:1038D0000730631EF50093F7B5FF8D466399D70057
:1038E0001C416244F24003A3470205610283F24097
:1038F00062447D55056182807D55828001112EC60E
:1039000032C436C206CE22CC26CAAA84EF00706525
:103910002A84C935B7170080938747CF924622463D
:10392000B2456395F400854763F88700F24062442E
:10393000D2447D5505618280B707008093870730A8
:103940002A87E315F5FE93F7B5FF0D48E39007FFCF
:103950001C436244F240D24403A3C70105610283C1
:1039600037170080130747CFB70700026303A7008C
:103970008147B1661387C6FFE1163E97B697144399
:1039800088430C43E39DD5FE8280B7170080938760
:1039900047CF01476314F500370700028947638664
:1039A000F50463C8B70085476382F502FD573E857D
:1039B00082808D476384F5049147E399F5FE814742
:1039C0007DD61C428A07BA979C43D5B7FD5765D26E
:1039D000411122C406C63284613708C04CC0B240CF
:1039E000224481473E8541018280FD5769D21C42B5
:1039F0008A07BA9723A00700814755BFFD5745DACC
:103A00001C428A07BA97054798C30F0080049C435D
:103A1000E5B7011106CE22CC2A84E5392AC670000A
:103A2000228589459D37F2406244056182800111FB
:103A300006CE22CC2A84F1392AC6700022858D4513
:103A4000A937F240624405618280AA85F32740F1DC
:103A50001397270093870183BA978843F32720346D
:103A60000DC593F7F73F138741819387870E631B3B
:103A7000E500370700808A0713070730BA9703A3CA
:103A8000070002838A079C430290828082800000A4
:103A90000000000000000000000000000000000026
:103AA0000000000000000000000000000000000016
:103AB0000000000000000000000000000000000006
:103AC00000000000000000000000000000000000F6
:103AD00000000000000000000000000000000000E6
:103AE00000000000000000000000000000000000D6
:103AF00000000000000000000000000000000000C6
:103B0000397106DE16DC1ADA1ED82AD62ED432D245
:103B100036D03ACE3ECC42CA46C872C676C47AC2C5
:103B20007EC0F32740F11397270093870183BA974C
:103B3000944373262034F3271034F327303473274B
:103B400050308DC6938741816385F6048147137594
:103B5000F63F635D0606930600086311D50403A7CC
:103B6000073983A58739130500080297F250E252FE
:103B70005253C2533255A255125682567247E247EB
:103B80005248C248324EA24E124F824F21617300FA
:103B90002030B70700809387073055BFAD4663D507
:103BA000A6001377F70311EB61473307E502BA97D5
:103BB00003A7070983A587094DBF8946E318D7FAEC
:103BC00073277030184383A5C70D45B71307850EBB
:103BD0000A07BA979C43AA853685829741BF0000A1
:103BE00000000000000000000000000000000000D5
:103BF0000000000000000000000001458280F32565
:103C000000B8732500B0F32700B8E39AF5FE828070
:103C100011CD938741816306F50001459355F54128
:103C200082803725F40013050540CDBF014581454D
:103C300082800111814701483EC406CE42C6938767
:103C40004181639CA700B707008003A5C74311C546
:103C50001C4130008545FC478297F2402245B24521
:103C60000561828037150080130545CF82801D4590
:103C700082800D458280011106CE2EC69387418138
:103C80006391A702B707008083A7C73D7D5599C7F9
:103C9000984370008D4578473E850297F240056154
:103CA00082807D55E5BF011106CE2EC693874181E6
:103CB0006391A702B707008083A7C73D7D5599C7C9
:103CC00098437000894578473E850297F240056128
:103CD00082807D55E5BF011106CE2EC693874181B6
:103CE0006391A702B707008083A7C73D014599C725
:103CF00098437000914578473E850297F2400561F0
:103D000082800145E5BF938741816384A700014517
:103D100082803705008013050530828083D7050037
:103D20000D4711458D8B6383E7000945828073251C
:103D30001034828073901534014582800145828061
:103D400041111305400606C6EF10904141111305BD
:103D5000800C06C6EF10D04093874181B2862E8634
:103D6000639CA700B707008003A5C74311C51C418A
:103D7000814503A3070502837D558280411106C654
:103D800022C4F32740F101446348F0001397270051
:103D900093870183BA9780432285613D9307A500ED
:103DA00033B5A7003306B50022852244B240BE8554
:103DB00041015DB75C41A9EF930705091307053978
:103DC00023A0070023A2070023A40700E107E3992B
:103DD000E7FE374701209307053A9306053D130791
:103DE00007D498C39107E39EF6FE73275030B707B8
:103DF000012093878717631BF700F3275030B747DD
:103E00000120938707B0F19B7390573085475CC1C1
:103E10008280938741816392A702AD477D5563CF2E
:103E2000B70009CEB70700809385850E93870730CA
:103E30008A05BE9590C1014582807D5582803715E7
:103E40000080130545CF828081EDF3275030B747BE
:103E50000120938707B0F19B739057300145828012
:103E600085477D55E39DF5FEF3275030B767012068
:103E70009387079893E71700C5B7732540F18280B1
:103E800039712AD61305C01206DE16DC1ADA1ED8DE
:103E90002ED432D236D03ACE3ECC42CA46C872C6B2
:103EA00076C47AC27EC0EF10B02B397106DE16DC04
:103EB0001ADA1ED82AD62ED432D236D03ACE3ECCFA
:103EC00042CA46C872C676C47AC27EC0F32740F1A1
:103ED0001397270093870183BA97984319CF938745
:103EE0004181631FF702B70700809387073003A75C
:103EF000870D83A5070E0D450297F250E2525253EB
:103F0000C2533255A255125682567247E247524862
:103F1000C248324EA24E124F824F216173002030B0
:103F20008327000E0290397106DE16DC1ADA1ED8DD
:103F30002AD62ED432D236D03ACE3ECC42CA46C849
:103F400072C676C47AC27EC0F32740F11397270069
:103F500093870183BA97984319CF93874181631F51
:103F6000F702B70700809387073003A7871383A55D
:103F700007141D450297F250E2525253C253325574
:103F8000A255125682567247E2475248C248324EF4
:103F9000A24E124F824F21617300203083270014FC
:103FA0000290397106DE16DC1ADA1ED82AD62ED413
:103FB00032D236D03ACE3ECC42CA46C872C676C459
:103FC0007AC27EC0F32740F11397270093870183BD
:103FD000BA97984319CF93874181631FF702B707B8
:103FE00000809387073003A7072183A587214145D8
:103FF0000297F250E2525253C2533255A255125612
:1040000082567247E2475248C248324EA24E124F81
:10401000824F216173002030832780210290397103
:1040200006DE16DC1ADA1ED82AD62ED432D236D0C4
:104030003ACE3ECC42CA46C872C676C47AC27EC068
:10404000F32740F11397270093870183BA9798438A
:1040500019CF93874181631FF702B70700809387C9
:10406000073003A7872283A5072345450297F2500F
:10407000E2525253C2533255A255125682567247DB
:10408000E2475248C248324EA24E124F824F21613F
:1040900073002030832700230290397106DE16DC7E
:1040A0001ADA1ED82AD62ED432D236D03ACE3ECC08
:1040B00042CA46C872C676C47AC27EC0F32740F1AF
:1040C0001397270093870183BA97984319CF938753
:1040D0004181631FF702B70700809387073003A76A
:1040E000072483A5872449450297F250E252525390
:1040F000C2533255A255125682567247E247524871
:10410000C248324EA24E124F824F216173002030BE
:10411000832780240290397106DE16DC1ADA1ED855
:104120002AD62ED432D236D03ACE3ECC42CA46C857
:1041300072C676C47AC27EC0F32740F11397270077
:1041400093870183BA97984319CF93874181631F5F
:10415000F702B70700809387073003A7872583A559
:1041600007264D450297F250E2525253C253325540
:10417000A255125682567247E2475248C248324E02
:10418000A24E124F824F21617300203083270026F8
:104190000290397106DE16DC1ADA1ED82AD62ED421
:1041A00032D236D03ACE3ECC42CA46C872C676C467
:1041B0007AC27EC0F32740F11397270093870183CB
:1041C000BA97984319CF93874181631FF702B707C6
:1041D00000809387073003A7072783A587275145CA
:1041E0000297F250E2525253C2533255A255125620
:1041F00082567247E2475248C248324EA24E124F90
:10420000824F21617300203083278027029039710B
:1042100006DE16DC1ADA1ED82AD62ED432D236D0D2
:104220003ACE3ECC42CA46C872C676C47AC27EC076
:10423000F32740F11397270093870183BA97984398
:1042400019CF93874181631FF702B70700809387D7
:10425000073003A7872883A5072955450297F25001
:10426000E2525253C2533255A255125682567247E9
:10427000E2475248C248324EA24E124F824F21614D
:1042800073002030832700290290397106DE16DC86
:104290001ADA1ED82AD62ED432D236D03ACE3ECC16
:1042A00042CA46C872C676C47AC27EC0F32740F1BD
:1042B0001397270093870183BA97984319CF938761
:1042C0004181631FF702B70700809387073003A778
:1042D000072A83A5872A59450297F250E252525382
:1042E000C2533255A255125682567247E24752487F
:1042F000C248324EA24E124F824F216173002030CD
:104300008327802A0290397106DE16DC1ADA1ED85D
:104310002AD62ED432D236D03ACE3ECC42CA46C865
:1043200072C676C47AC27EC0F32740F11397270085
:1043300093870183BA97984319CF93874181631F6D
:10434000F702B70700809387073003A7872B83A561
:10435000072C5D450297F250E2525253C253325538
:10436000A255125682567247E2475248C248324E10
:10437000A24E124F824F2161730020308327002C00
:104380000290397106DE16DC1ADA1ED82AD62ED42F
:1043900032D236D03ACE3ECC42CA46C872C676C475
:1043A0007AC27EC0F32740F11397270093870183D9
:1043B000BA97984319CF93874181631FF702B707D4
:1043C00000809387073003A7072D83A5872D6145BC
:1043D0000297F250E2525253C2533255A25512562E
:1043E00082567247E2475248C248324EA24E124F9E
:1043F000824F2161730020308327802D0290397114
:1044000006DE16DC1ADA1ED82AD62ED432D236D0E0
:104410003ACE3ECC42CA46C872C676C47AC27EC084
:10442000F32740F11397270093870183BA979843A6
:1044300019CF93874181631FF702B70700809387E5
:10444000073003A7872E83A5072F65450297F250F3
:10445000E2525253C2533255A255125682567247F7
:10446000E2475248C248324EA24E124F824F21615B
:10447000730020308327002F0290397106DE16DC8E
:104480001ADA1ED82AD62ED432D236D03ACE3ECC24
:1044900042CA46C872C676C47AC27EC0F32740F1CB
:1044A0001397270093870183BA97984319CF93876F
:1044B0004181631FF702B70700809387073003A786
:1044C000073083A5873069450297F250E252525374
:1044D000C2533255A255125682567247E24752488D
:1044E000C248324EA24E124F824F216173002030DB
:1044F000832780300290397106DE16DC1ADA1ED866
:104500002AD62ED432D236D03ACE3ECC42CA46C873
:1045100072C676C47AC27EC0F32740F11397270093
:1045200093870183BA97984319CF93874181631F7B
:10453000F702B70700809387073003A7873183A569
:1045400007326D450297F250E2525253C253325530
:10455000A255125682567247E2475248C248324E1E
:10456000A24E124F824F2161730020308327003208
:104570000290397106DE16DC1ADA1ED82AD62ED43D
:1045800032D236D03ACE3ECC42CA46C872C676C483
:104590007AC27EC0F32740F11397270093870183E7
:1045A000BA97984319CF93874181631FF702B707E2
:1045B00000809387073003A7073383A587337145AE
:1045C0000297F250E2525253C2533255A25512563C
:1045D00082567247E2475248C248324EA24E124FAC
:1045E000824F21617300203083278033029039711C
:1045F00006DE16DC1ADA1ED82AD62ED432D236D0EF
:104600003ACE3ECC42CA46C872C676C47AC27EC092
:10461000F32740F11397270093870183BA979843B4
:1046200019CF93874181631FF702B70700809387F3
:10463000073003A7873483A5073575450297F250E5
:10464000E2525253C2533255A25512568256724705
:10465000E2475248C248324EA24E124F824F216169
:1046600073002030832700350290397106DE16DC96
:104670001ADA1ED82AD62ED432D236D03ACE3ECC32
:1046800042CA46C872C676C47AC27EC0F32740F1D9
:104690001397270093870183BA97984319CF93877D
:1046A0004181631FF702B70700809387073003A794
:1046B000073683A5873679450297F250E252525366
:1046C000C2533255A255125682567247E24752489B
:1046D000C248324EA24E124F824F216173002030E9
:1046E000832780360290397106DE16DC1ADA1ED86E
:1046F0002AD62ED432D236D03ACE3ECC42CA46C882
:1047000072C676C47AC27EC0F32740F113972700A1
:1047100093870183BA97984319CF93874181631F89
:10472000F702B70700809387073003A7873783A571
:1047300007387D450297F250E2525253C253325528
:10474000A255125682567247E2475248C248324E2C
:10475000A24E124F824F2161730020308327003810
:104760000290F327503093F7F703FD1709470145EF
:104770006367F70013874183BA9703C507008280F8
:10478000CDB7AD476308F50263CBA7000D4785475A
:104790006305E5006515933715003E858280414726
:1047A0008147E34CE5FE7D478547E358A7FE1305A7
:1047B00005F8D5B78547D5B7011122CC2A842E85B7
:1047C00026CA4AC84EC606CEAE84B2893689553F3F
:1047D000D55701C993070008639AF4085937CD5794
:1047E0002DCDF2406244D2444249B2493E85056132
:1047F000828023283439232C243909A8E145B38445
:10480000B402269423283409232C24098147D1BFDC
:10481000138704FFBD46D157E3E5E6FCE145B384C9
:10482000B402B74701209387C7D426942328F408FD
:10483000232A2409E1BFB74701209387A7A4232C8B
:10484000F40C232E240DD9B7B74701209387C7D77F
:10485000232CF412232E241355BFE39C09F8B747E9
:1048600001209387C7A82328F43871B7E39809F883
:10487000AD47E385F4FAE3CD97F88D47E38DF4FA7D
:104880009D47E383F4FCD157A9BF11C99D47638AB3
:10489000F50463E8B7009DC58D47638FF5027D562B
:1048A00015A8AD476382F504E3EBF5FE938705FF9A
:1048B0003D47E366F7FE8547B395B7000DCEF3A5F8
:1048C000453029A0A14709C6F3A70730014619A022
:1048D000F3B7073032858280A14719CAF3A7473062
:1048E000F5B793070008D5BF856793870780F5B7AD
:1048F000F3B74730C5B7F3B54530E9BF054671B7E3
:10490000014661B7B70700809387076D639DA700D5
:1049100099477D5563EAC700B707000C8A05BE9525
:1049200090C1014582807D558280B70700809387C2
:10493000076D6387A70081478A05BE9588418280FD
:10494000B707000CD5BF41111305C01206C6EF1002
:1049500020010111B707008022CC06CE26CA4AC822
:104960004EC652C49387076D2A8401476314F5002D
:10497000130750037D5563D5E502B689328AAE84AC
:104980001399250015C622850946AD3FE145B3843C
:10499000B40222992324490126942328340F014587
:1049A000F2406244D2444249B249224A05618280BF
:1049B00022850546813FE145B384B402B757012003
:1049C0002299938767942324F90026942326340F91
:1049D000F9B7B70700809387076D01476394A70075
:1049E0003707000CB70720009107B205BE95BA95AE
:1049F00088418280B70700809387076D3707000CD6
:104A00006383A7000147B7072000B2059107BE9551
:104A1000BA9590C18280011106CE22CC26CA2E847E
:104A2000EFF0AFC53335A000B304A040A6852285C2
:104A30004D37B70700809387076D2A866314F40209
:104A40009307400363E0A70293172500A2979847B6
:104A500011CBE147B307F5022AC6A29783A5070F3A
:104A60000297324622856244F240A685D24405610F
:104A700051B7B70700809387076D3707000C638332
:104A8000A7000147B7072000B205BE95BA9590C1AF
:104A900001458280011122CC06CE2A842EC6EFF079
:104AA000CFBDAA85228562443246F2400561D1B766
:104AB000011122CC26CA4AC84EC652C406CEAA89C3
:104AC000328A2E8981440144631B0900F24062440A
:104AD00026854249D244B249224A0561828009C8EA
:104AE0005286A2854E857137058933158500C98C9C
:104AF000050413591900C9BFB70700809387076DD4
:104B0000638AA700814737072000B205BA95BE9592
:104B100088418280B707000CFDB7411122C406C648
:104B20002A84EFF08FB5AA8522852244B240410144
:104B3000E1B7411106C6C937B24001454101828043
:104B4000370700801307076D3708000C6303A700C1
:104B50000148135756400A0793977500BA9709679B
:104B6000BA97C2978C4305473316C70089C64D8E46
:104B700090C3014582801346F6FF6D8ED5BF0111AB
:104B800026CA444106CE22CC4AC84EC652C456C29A
:104B90005AC099C8F2406244D2444249B249224ABA
:104BA000924A024B05618280B70700809387076DA8
:104BB000930A50036303F500814A37090080832775
:104BC00009302A84130509309C439309C40E130A43
:104BD00009308297130B0040814626868145228545
:104BE000853763DF54010146A6852285213B9397D3
:104BF0002400A29723A4070023A0090023A20900F0
:104C00008504E109E39A64FD0146814522859535D5
:104C100083270A00A2860146DC4FAD451305093003
:104C2000829783270A0037560120A286DC4F13069D
:104C300066A1AD4513050930829783270A00AD456B
:104C400013050930DC53829785475CC0A1B7B707CD
:104C500000809387076D01476314F5001307500325
:104C6000FD5763D4E502011106CE22CC2EC62A845C
:104C7000EFF0AFA03246AA8585462285D135F240B5
:104C8000624481473E85056182803E858280B70708
:104C900000809387076D01476314F50013075003E5
:104CA000FD5763D4E502011106CE22CC2EC62A841C
:104CB000EFF0AF9C3246AA85814622855135F240FD
:104CC000624481473E85056182803E858280011174
:104CD000B707008006CE22CC26CA4AC84EC652C4A8
:104CE0009387076D01476314F50013075003FD54C4
:104CF0006358E600328AAA892E848144014911E86A
:104D0000F240624426854249D244B249224A0561B2
:104D10008280630B090085465286CA854E850D3513
:104D2000058933152501C98C05090580C9BF011105
:104D3000B707008006CE22CC26CA4AC84EC652C447
:104D40009387076D01476314F50013075003FD5463
:104D50006358E600328AAA892E848144014911E809
:104D6000F240624426854249D244B249224A056152
:104D70008280630B090081465286CA854E85C933FD
:104D8000058933152501C98C05090580C9BF83A78D
:104D90008184411122C406C681451385C182829750
:104DA0002A84931714007D5563DF0700635D0400B8
:104DB000370500801305452C1374F403EF00903180
:104DC000050433558502B240224441018280C1B7B7
:104DD00083A78184411106C691451385C1828297BC
:104DE0009317150063DC0700635A0500B2403705CE
:104DF00000801305C52A41016F00D02DB2407D55BA
:104E000041018280F1B71385C18282802145828071
:104E1000411122C42A84484106C6EF007028B78792
:104E2000001098479316F70063D706009847C1769D
:104E3000FD16758F98C7378700101C47B70602000C
:104E4000B725F400D58F1CC71C40228593850540EB
:104E5000DC43829708442244B24041016F00502451
:104E6000011106CE22CC26CA2A844D372AC62285B5
:104E7000593F83A48184B24582942A84B145138525
:104E8000C18282949317F40063CC07006244F2401D
:104E9000D244370500801305052D05616F0090236E
:104EA0009317E400AA8463C507063705008013053D
:104EB000052DEF0030229317D40063C607049357E3
:104EC00044008566938606C093F7F7031377740052
:104ED0008507758C9306F03F0507860763FF8602FA
:104EE0003345E50229803305F50285473394870071
:104EF00093F704103345850299E793F4F40385048E
:104F0000860433559502F2406244D24405618280A2
:104F1000370500801305852B69BF7D55EDB7797185
:104F200022D426D24AD006D64ECE52CCAA842E897E
:104F300037840010E13D2A941C401397F700635713
:104F400007001C4041777D17F98F1CC01C40139748
:104F5000E700634D0702370500801305052DEF00BC
:104F600070170D473307E50291463347D702634474
:104F7000E9029547B307F502B3C7D70263CD27010E
:104F80001C4037070400D98F1CC021AA37050080B8
:104F90001305852BE9B73717012037080080130761
:104FA000C730FD561348F8FF13063004FD551C4763
:104FB000636AF5025C4763E7A7021C438328470046
:104FC000B307F502B3D71703638EB700B387274142
:104FD00093D8F741B3C7F800B387174163D40701EB
:104FE0003E88B2867D160117E313B6FC1C40E38AA7
:104FF000C6F8E19B1CC0B717012096069387C7AA85
:10500000B697984B10401D8B518F18C018401377DE
:10501000F7C018C0D84B144012071377073F558FBD
:1050200018C01840FD769386F63F758F18C0984FCC
:10503000104085662A07938606C0758F518F18C069
:10504000D84FB7870010635C0706D847136707106F
:10505000D8C7D847137707FCD8C7D84713671700B6
:10506000D8C71C403707FCFF7D17F98FB7190080A0
:105070001CC030008545138549CFEFE01F912249C0
:10508000B247130A490033392A013E99B247636790
:10509000F90063932705A2476370FA041C40E3DF1D
:1050A00007FE1C4041672685D98F1CC0553BB25076
:1050B000225492540259F249624A45618280D4478F
:1050C0001377F70393F6F6EFD4C7D44793F606FCAD
:1050D000D4C7D447558F69B730008545138549CF6C
:1050E000EFE0BF8A65B7B7870010BE958841828020
:1050F000B7870010BE9590C1328582809387018268
:10510000630CF500938741826308F50093878182E1
:105110006304F500014582801385C18182809387F5
:105120000182630FF50013874182CD476308E500D4
:1051300013878182D5476303E50081473E858280DE
:10514000D947EDBF411126C206C622C4AA847D37C5
:105150000DC12A842685E137AA84AA852285EF001D
:10516000A07A22852244B240A685924441016F0074
:10517000E07AB2402244924441018280411126C229
:1051800006C622C4AA849D3F09CD2A842685413FB4
:10519000AA8522852244B2409244054641016F000F
:1051A0002079B2402244924441018280411126C2BA
:1051B00006C622C4AA84993709CD2A842685853754
:1051C000AA8522852244B2409244014641016F00E3
:1051D0002076B2402244924441018280411126C28D
:1051E00006C622C4AA84193F01CD2A842685053F1C
:1051F000AA8522852244B240924441016F00007585
:10520000B2402244924441018280411106C69387F4
:1052100001826305F502938741826306F502938755
:1052200081826307F5023705012013058574EF00BD
:105230003022B2401335150041018280371501201C
:1052400013050534EDB7371501201305C532C5B771
:105250003715012013058533D9BF1387C181B727BF
:1052600001106303A7008147D8430145D98DCCC302
:1052700082801387C181B72701106303A70081478C
:10528000D84393C5F5FF0145F98DCCC38280938740
:10529000C1816385A700814788438280B7270110B9
:1052A000E5BF9387C1816385A7008147C847828096
:1052B000B7270110E5BF1387C181B727011063032A
:1052C000A7008147984793C5F5FF0145F98D8CC725
:1052D00082801387C181B72701106303A70081472C
:1052E00098470145D98D8CC782801387C181B72724
:1052F00001106303A7008147D8470145D98DCCC76A
:1053000082801387C181B72701106303A7008147FB
:10531000D84793C5F5FF0145F98DCCC78280138727
:10532000C181B72701106303A7008147D847014512
:10533000B98DCCC782801387C181B7270110630361
:10534000A7008147D85F0145D98DCCDF985F598E82
:1053500090DF82801387C181B72701106303A70004
:105360008147985F93C5F5FF0145F98D8CDF8280F9
:105370001387C181B72701106303A70081471D4729
:10538000636CC702371701201307C7350A063A9620
:1053900018420287984F93C5F5FF6D8F98CF9853A9
:1053A0006D8F98D398576D8F98D7985BF98D8CDB5C
:1053B00021A0984FD98D8CCF01458280984F4D8F79
:1053C00098CF9853D98D8CD3C5BF9857D98D8CD78A
:1053D000E5B7984F4D8F98CF98534D8F98D39857E6
:1053E0004D8F98D7985BD98DD9B71387C181B727CF
:1053F00001106303A70081477D161947636DC7003D
:10540000371701201307C7370A063A961842028752
:10541000D84FD98DCCCF01458280D84F4D8FD8CF72
:10542000D853D98DCCD3C5BFD857D98DCCD7E5B7F4
:10543000D84F4D8FD8CFD8534D8FD8D3D8574D8F05
:10544000D8D7D85BD98DCCDBF9B79387C18163847A
:10545000A70001458280370500801305056D828015
:105460009387C1816398A7102145638605108547FE
:1054700025456382F51089472945638EF50E8D47D2
:105480002D45638AF50E914731456386F50E9547A4
:1054900035456382F50E99473945638EF50C9D4776
:1054A0003D45638AF50CA14741456386F50CA54748
:1054B00045456382F50CA9474945638EF50AAD471A
:1054C0004D45638AF50AB14751456386F50AB547EC
:1054D00055456382F50AB9475945638EF508BD47BE
:1054E0005D45638AF508C14761456386F508C54790
:1054F00065456382F508C9476945638EF506CD4762
:105500006D45638AF506D14771456386F506D54733
:1055100075456382F506D9477945638EF504DD4705
:105520007D45638AF504E147130500026385F504B0
:10553000E547130510026380F504E94713052002CF
:10554000638BF502ED47130530026386F502F147E0
:10555000130540026381F502F5476D45638DF50043
:10556000F94771456389F500FD4701456395F500ED
:105570007545828001458280B7170080938787CA6E
:10558000630DF50037170080130787CCB73702107B
:105590006303E50081473E858280B7370110E5BF90
:1055A000B7170080938787CA630AF500B717008092
:1055B000938787CC6304F50001458280370500801E
:1055C0001305056D8280B7170080938787CA630C27
:1055D000F50037170080130787CC91476303E50078
:1055E00081473E8582808D47EDBF411106C66937F0
:1055F0001C49B24093E717001CC901454101828054
:10560000411106C6953F1C49B240F99B1CC9014592
:1056100041018280411106C685371C49B24093E79B
:1056200027001CC9014541018280411106C6A937E6
:105630001C49B240F59B1CC90145410182804111C2
:1056400006C61D3F0841B2407D81410182800111A3
:1056500006CE2EC61537B2451C4537070700C205D2
:10566000F240F98DDD8D0CC5014505618280411147
:1056700006C619370845B24041811D894101828023
:10568000011106CE2EC6CD3DB2455C453707070059
:10569000C205F240F98DDD8D4CC501450561828062
:1056A000411106C6D13D4845B24041811D894101A5
:1056B0008280411122C426C24AC006C62A89AE840D
:1056C000653D2A844A85A53F75FD04C0B240224449
:1056D000924402494101828001112EC606CE693DE5
:1056E0005841B2459377F70F63530700FD57F240D7
:1056F0009CC101450561828048418280011126CA12
:1057000006CE22CCAA848D3DB7170080938787CA26
:10571000638DF404B7170080938787CC6387F40404
:1057200081471845B706F9FFFD16758F18C518454E
:10573000C166558F18C55849058B75DF98430045DC
:105740003E85184309881334140002972504330555
:10575000A402C04002C633558502B24763CCA700FD
:10576000F2406244D24405618280B707008093878B
:10577000C72D45BF0100B24785073EC6F9BF4C4162
:10578000D5AAB7170080938787CA630BF500B717B0
:105790000080938787CC6305F5004CC1014582806A
:1057A000411106C622C426C24AC02E84AA84EFF044
:1057B000BFDC2A89370500808327C52DC0C01305AB
:1057C000C52D9C43829733458502B24022449244C2
:1057D0007D15232CA90083278900014593E7170035
:1057E0002324F9008327C90093E717002326F90033
:1057F00002494101828001114AC83719008022CC38
:105800004EC606CE26CA130989CA2A84AE89630900
:105810002501B7170080938787CC8144631EF5026A
:10582000B70400809384C42DC840B75701209387E4
:10583000C76F1CC49305840040C44920C8C0B75733
:10584000012088449387E7775CC800CC9305440126
:10585000B52088C49384C181CE852285212A95C82C
:1058600037060300630B2401B7170080938787CCAA
:10587000370684006303F40001469C406244F24012
:105880004249B24903A347022685D24481450561B6
:105890000283F2406244D2444249B24905618280A7
:1058A000411122C406C62A8409E4B24022444101BF
:1058B00082801C40484082970044FDB723A4050025
:1058C000AA8701E52E858280BA87984775FF8CC725
:1058D000AA85CDBF1C4103A307000283011122CC7E
:1058E0002A84484106CE26CA2EC65D3F1C40B245DA
:1058F0002285DC438297AA8408445D37F2406244E3
:105900002685D2440561828001C91C4103A307009A
:105910008547B395B70002830545828001C91C41C4
:1059200003A347018547B395B700028305458280ED
:1059300001CD85471841B395B70001E60323C701A0
:10594000028303238701EDBF0545828001C91C4105
:1059500003A307028547B395B700028305458280FC
:105960000100FDBF1C4103A3070002831C4103A3E8
:10597000470002831C4103A347010283000000008B
:105980006FE00FD06FE0CFCF6FE08FCF6FE0EFD140
:105990006FE00FCF6FE0CFCE6FE08FCE6FE0AFD86C
:1059A0006FE00FCE6FE0CFCD6FE08FCD6FE04FCDCA
:1059B0006FE00FCD6FE0CFCC6FE08FCC6FE04FCCBE
:1059C0006FE02FDE6FE0AFE56FE02FED6FE0AFF43B
:1059D0006FE02FFC6FE0BF836FE03F8B6FE0BF9203
:1059E0006FE03F9A6FE0BFA16FE03FA96FE0BFB0EB
:1059F0006FE03FB86FE0BFBF6FE03FC76FE0BFCE63
:105A0000B70700809387C72A6308F502B7070080AD
:105A10009387472C6307F502370700801307872E0B
:105A2000A1676309E500370700801307472F630369
:105A3000E50081473E858280B727F40093870740C1
:105A4000D5BFB7A74A0493870720EDB7B7070080F3
:105A50009387C72A6308F502B70700809387472C0E
:105A60006307F502370700801307872EA1676309D4
:105A7000E500370700801307472F6303E5008147E0
:105A80003E858280B727F40093870740D5BFB7A72C
:105A90004A0493870720EDB7411106C67528B24026
:105AA000930780051CC17D5541018280411106C6C6
:105AB0006520B240930780FA1CC17D554101828068
:105AC0007D15133515008280411106C67120B24044
:105AD000930780051CC17D5541018280411106C696
:105AE000A528B240930780051CC17D5541018280E5
:105AF000938781D113878151638CE70093878185D8
:105B0000944336956375E50088C33685828098C3D3
:105B1000FD56E5BF411106C622C426C2854763195A
:105B2000F5002E84B384C500631E9400014531A0A6
